:020000040800F2
:1000000010050020D5000008B51500087714000879
:1000100000000000000000000000000000000000E0
:10002000000000000000000000000000FF150008B4
:100030000000000000000000FD1500080116000887
:10004000BD180008000000000501000805010008B7
:1000500005010008D5020008050100080501000897
:100060000000000005010008050100080501000866
:100070000501000805010008000000000501000856
:100080000000000000000000000000000000000070
:10009000DD16000800000000000000000501000857
:1000A0000000000005010008000000000000000042
:1000B0000501000805010008000000000000000024
:1000C0000348854600F05AF8004800477D1B0008A9
:1000D000100500200C4880F308880C480168090EC0
:1000E0000B4A914205D10B480B4901600B480C4962
:1000F00001600C4880470C480047FEE7FEE7FEE73A
:10010000FEE7FEE7FEE70000100500200400000007
:100110001F000000341002400100000000000140F8
:100120000000000089160008C100000830B50B4629
:10013000014600202022012409E00D46D5409D42C1
:1001400005D31D469540491B254695404019154647
:10015000521E002DF1DC30BDD2B201E00270401C15
:10016000491EFBD270470022F6E710B513460A4637
:1001700004461946FFF7F0FF204610BD064C012546
:10018000064E05E0E36807CC2B430C3C984710343F
:10019000B442F7D3FFF798FFB81D0008D81D000838
:1001A000F8B50446006881688907890F012902D1E2
:1001B0000168C90729D18168154A10261140012517
:1001C000002915D1816829438160134811490068CD
:1001D000FFF7ACFF00E0401E00900028FBD100F0CC
:1001E00055FB07460CE000F051FBC01B0A2807D95D
:1001F000606D30436065A06D2843A0650120F8BDA7
:1002000020680068C043C007EDD10020F8BD0000A1
:100210001700008040420F00040000201CB50021A0
:100220001F4800911D4A019102600164012241644E
:10023000D30781644360C2638160022383630261E8
:100240000346C16020331A70FF245970C2344462DF
:1002500081621A738261042342634361C261016354
:1002600000F07CF8002801D000F039F80D4800902B
:100270004002019069460A4800F032F8002801D097
:1002800000F02DF8084800906946054800F028F86D
:10029000002801D000F023F81CBD0000002401401C
:1002A0003C0000200800000C1000001010B50749A9
:1002B0000868401C0860C107054804D000220221DC
:1002C00000F0DDFA10BD0122F9E70000080000206F
:1002D0000004005010B5012000F012FA10BD704764
:1002E000F0B502464032137C012B0ED0012313746B
:1002F00003689C6865070024002D08DA416D2023FF
:100300001943416514740120F0BD0220F0BD0F4F68
:100310004E68BD05BE420E489E6A0F6809D07F0335
:100320007F0B3E439E62096889030CD5816829438F
:1003300008E07F037F0BBE439E620968890302D5F4
:100340008168A943816014740020F0BD0110000091
:10035000002701400068006C7047000070B5040081
:1003600006D0606D264600254036002802D006E003
:10037000012070BDA5653574204600F0D3F8606D8E
:10038000C00603D421688868400705D5606D102138
:10039000084360653574EBE7606DFF2201329043DE
:1003A00002221043606588688207920F5B48012A29
:1003B00002D10A68D2072BD1032362689B079A42B5
:1003C00005D05B429A4202D05B009A4209D10A6989
:1003D000920092080A6121680A6963681A430A61F7
:1003E0000CE00A69920092080A6181680F22920467
:1003F0009143816081686268114381602168CA68A5
:1004000018239A43CA602168CA68A3681A43CA605D
:10041000816801225206914381608168A28E520652
:100420001143816020688168C90004D48168012279
:100430001207114381602068C168394A1140C160C8
:100440002069E168022825D00020014320462030A1
:100450000278037B52035B001A431143226B114362
:10046000A26992031143E269D20311432268D3685F
:100470001943D160616A0A46FF3AC23A05D0A26ABE
:1004800011432268D3681943D16042780121012ABF
:1004900002D00BE00420D8E70078002823D0606D5C
:1004A000202210436065A06D0843A065E06B012821
:1004B00020681FD00169C90703D0016949084900B4
:1004C000016120684169C908C9004161206841692A
:1004D000A26B11434161A565606D80088000401CDE
:1004E0006065002070BD2068C26801231B041A43A8
:1004F000C260DBE70269FF239B009A430261206828
:100500000269236CA66C1A43636C33431A4302617D
:10051000206802690A430261D3E700000027014016
:100520001902FEFF10B586B0044614216846FFF795
:100530001AFE0E492068884216D10D48416B4215BB
:1005400011434163C16A01221143C162C06A694615
:100550001040059018200090032001900020029088
:100560000520000700F0D8F806B010BD00240140B7
:1005700000100240F8B504464069254640350E4655
:1005800008280BD02068C068C00709D0606D202102
:1005900008436065002028740120F8BD082700E0AA
:1005A0000C2700F073F9009011E0701C0FD0002EA2
:1005B00005D000F06BF90099401AB04207D9606D80
:1005C000042108436065002028740320F8BD2068DA
:1005D00000683842E9D0606D012149020843606536
:1005E0002068C16809058A0F0C21002A1BD120222E
:1005F000125D002A17D10268120714D582685307CA
:100600000122002B08DB43688B434360606D1302BB
:1006100098431043606506E0606D202318436065D1
:10062000A06D1043A065A069002801D12068016079
:100630000020F8BD70B5044621680020896849078C
:1006400021D425464035297C01291CD0012129745B
:10065000E169012904D02046FFF7A2FD002811D14D
:10066000616D0A4A1140FF22013211436165002188
:10067000A165297422681C21116021688A680423FD
:100680001A438A6070BD022070BD0000FEF1FFFFBA
:1006900070B5044600F0FAF80546601C00D0641CF2
:1006A00000F0F4F8401BA042FAD370BD70B50128E9
:1006B0000BD10A20FFF7ECFF05252D0700240121AF
:1006C000284600F0D7F8002808D070BD0520641C2B
:1006D000FFF7DEFF01F0BEF9C82C0EDA0121284633
:1006E00000F0C8F80028F1D0C82C06DA01F0D4F9DF
:1006F0000028EAD101F0B0FA70BD01F03BFB70BDFB
:1007000010B504494A69024202D04861FFF7CEFFA2
:1007100010BD000000040140F8B50023012498E05A
:1007200027469F403A4070D04D68022D01D0122DCF
:1007300014D1DD08AD002D1800952D6A5E07AC467A
:10074000F50E0F26AE46AE406546B543AC460E6983
:100750007546AE4065462E43009D2E624D68012DC4
:1007600005D0022D03D0112D01D0122D16D1856890
:100770000326AC465D00AE46AE406546B543AC468A
:10078000CE687546AE4065462E43866046680D7954
:10079000BE43ED06ED0F9D403543456006685F00A2
:1007A0000325BD40AE46AE430D79B446AE07B60F45
:1007B000BE4065462E430660C6687546AE438D68EA
:1007C000BD403543C5604D68ED0041D5244D6E6B8D
:1007D00026436E639E08234DB6007519AC46AD687E
:1007E0009E07360F0F27B740BD4305273F07B84286
:1007F00001D100270BE01C4FB84201D1012706E0D0
:100800001A4FB84202D1022701E021E00627B74083
:100810002F436546AF60164D2E684F689643FF0321
:1008200000D516432E606E684F689643BF0300D50F
:1008300016436E60AE684F689643FF0200D51643BC
:10084000AE60EE684F689643BF0200D51643EE6077
:100850005B1C0A681546DD4000D061E7F8BD00006A
:100860000010024000000140000400500008005049
:10087000000401400069084000D001207047002AB0
:1008800001D08161704781627047000001480068B3
:10089000704700000000002070B504000FD02168F0
:1008A0001348086021681348086003CC4160206841
:1008B000083C21688860FFF7E9FF054608E0012051
:1008C00070BDFFF7E3FF401B302801D9032070BD46
:1008D0002068C0680028F4D120680269E1688A4273
:1008E00001D0016101E004490160002070BD0000F9
:1008F000CCCC000055550000AAAA000000680249AF
:100900000160002070470000AAAA000002480168A8
:10091000491C0160704700000000002010B5084825
:1009200000240168402211430160204600F00AF8CB
:10093000002801D0012401E000F01CF8204610BD81
:100940000020024070B5054609487D210024C900F9
:100950000068FFF7EBFB00F0D7FB002801D0012473
:1009600004E000222946501E00F01AF8204670BD0F
:10097000040000200448416B012211434163816B54
:10098000020411438163704700100240C106C90E82
:1009900001208840014908607047000000E100E044
:1009A00010B500F009FE10BDF8B5044600784F4DB3
:1009B000800672D54D4E0027403EB06BC00004D477
:1009C000B06BA9050843B063012749480168C90510
:1009D00011D40168821511430160FFF757FF0090A1
:1009E00005E0FFF753FF0099401A642837D84048C4
:1009F0000068C005F5D532680321090560680A4022
:100A00000140914208D08103890F032904D1316844
:100A1000890301D50120F8BD2A69032109040A4090
:100A200022D0084090421FD0207880061CD528692B
:100A30002A6988430121C9040A432A612A698A4331
:100A40002A612861C0050FD5FFF720FF009008E05C
:100A5000FFF71CFF0099411A2648814201D9032063
:100A6000F8BD28698005F3D561688803800F0328E5
:100A700005D132680005824301400A43326028698B
:100A8000032261681204114008432861002F04D03A
:100A9000B16B012000078143B1632078800705D541
:100AA000E8680C218843A1680843E8602078400783
:100AB00006D5E868032189028843E1680843E860B5
:100AC0002078000706D5E8680321090388432169D7
:100AD0000843E8602078000606D5E8680321890409
:100AE000884361690843E8600020F8BD4010024077
:100AF0000070004088130000F8B50E4605007DD058
:100B000053480068C007C00FB0420AD2504801687D
:100B100049084900314301600068C007C00FB04276
:100B200071D128784B4C800705D5E068F0218843C7
:100B3000A9680843E0602878C00752D06868022896
:100B400017D0032818D02168012818D0890500295A
:100B500059DAE168890889000143E160FFF796FEF0
:100B600069680746022912D003291CD0012926D022
:100B700033E021688903EAE721688901E7E749074B
:100B8000E5E7FFF783FEC11B3348814223D8E068C5
:100B90000007800F0228F4D123E0FFF777FEC11B86
:100BA0002D48814217D8E0680007800F0328F4D150
:100BB00017E0FFF76BFEC11B274881420BD8E068A6
:100BC0000007800F0128F4D10BE0FFF75FFEC11B87
:100BD0002148814201D90320F8BDE0680007800F59
:100BE000F3D11B480168C907C90FB1420DD901688B
:100BF0004908490031430160006800E003E0C00794
:100C0000C00FB04201D00120F8BD2878400706D5BA
:100C1000E068072109028843E9680843E060287812
:100C2000000707D5E0680721C90288432969C90080
:100C30000843E06000F016F8E168084A0906090F69
:100C4000515CC840064908600020FFF77BFEF8BDF4
:100C50000020024000100240881300009C1D000884
:100C60000400002010B5184AD1680C200840042860
:100C70000BD0082810D00C2810D050680004410F69
:100C80000120C003491C884010BD1068C00601D572
:100C90000E4810BD0E4810BD0E4810BD88020E4B08
:100CA000000F185C0902D368890F491CDB0301D5CA
:100CB000084A05E01268D20601D5044A00E0044A59
:100CC0005043FFF733FA10BD0010024000093D0009
:100CD0000024F40000127A00AC1D0008FEB50500E7
:100CE0007ED0FE4CE7680C20E66807400120000437
:100CF00006402878C00747D0082F05D00C2F0AD10E
:100D000001200004864206D1206880033CD5686833
:100D10000028E5D038E0012069680004814203D151
:100D200021680143216011E0052301221B04920484
:100D30009942216802D111432160F1E7814321608A
:100D40002168014000912068904320606868002875
:100D50000DD0FFF79BFD009005E0FFF797FD009990
:100D6000401A64287ED820688003F6D50CE0FFF78F
:100D70008DFD009005E0FFF789FD0099401A642879
:100D8000F0D820688003F6D4287880075CD5E8681E
:100D9000810604D5226820210A4322608843092362
:100DA000042F0DD00C2F01D1002E09D000283BD0EC
:100DB0002168994301432160FFF768FD064627E05B
:100DC0002168490701D500288AD061681F221202D4
:100DD00091432A691202114361602168994300E03E
:100DE0008EE101432160FFF73DFFE16809060A0F2C
:100DF000BB49895CC840BB4908600020FFF7A2FDE1
:100E0000002873D120E0FFF741FD801B0228A9D8FC
:100E100020684007F7D560681F21090288432969C7
:100E20000902084360600FE020684008400020602D
:100E3000FFF72CFD064604E0FFF728FD801B022883
:100E400090D820684007F7D42878C00660D5002FD6
:100E50000DD0A86900284AD02068FF21013108433D
:100E6000206000E0C4E0FFF711FD06462CE020689A
:100E7000800502D5A8690028A6D06068072149032B
:100E80008843296A084360606068297F0002000A7D
:100E9000090608436060286A410B0120C003491C11
:100EA0008840E16809060A0F8D49895CC8408D4970
:100EB00008600020FFF746FD002817D128E0FFF763
:100EC000E5FC801B0228A2D820688005F7D5606861
:100ED000072149038843296A084360606068297FC5
:100EE0000002000A09060843606011E0E1E02168A1
:100EF000FF20013081432160FFF7C8FC064604E073
:100F0000FFF7C4FC801B022872D820688005F7D444
:100F10002878754E000724D568690028306910D0FC
:100F2000012108433061FFF7B1FC009005E0FFF7B5
:100F3000ADFC0099401A02285AD830698007F6D5CE
:100F40000FE0400840003061FFF7A0FC009005E092
:100F5000FFF79CFC0099401A022849D830698007A5
:100F6000F6D42878400765D500200290A06BC00019
:100F700006D4A06B012109070843A0630120029059
:100F80005A480168C90511D40168821511430160EE
:100F9000FFF77CFC009005E0FFF778FC0099401A11
:100FA000642825D851480068C005F5D5FF20AA68F7
:100FB0000130824203D131690143316111E00121E5
:100FC0008902002A07D005231B029A4203D1326905
:100FD0000A433261EFE73269824332613069884304
:100FE0003061A86800280FD0FFF750FC009007E0A0
:100FF0005EE0FFF74BFC0099411A3D48814257D80B
:1010000030698005F5D50DE0FFF740FC009006E063
:10101000FFF73CFC0099411A3548814248D83069B5
:101020008005F5D40298002804D0A16B01200007A8
:101030008143A163686A002864D00C2F3ED001264A
:1010400036060228206805D0B0432060FFF71EFC5A
:1010500005462FE0B0432060FFF718FC074604E088
:10106000FFF714FCC01B022822D820688001F7D4A7
:10107000E96AA86AE2680843296BFD231B049A43C6
:1010800011430843E060206830432060FFF7FEFB17
:10109000054604E0FFF7FAFB401B022808D8206849
:1010A0008001F7D52EE0FFF7F1FB401B022801D9A4
:1010B0000320FEBD20688001F5D423E00128F8D08C
:1010C000E06801210904AA6A0140914218D10F2168
:1010D0008904EA6A0140914212D10BE000100240FB
:1010E0009C1D0008040000204010024000700040D9
:1010F00088130000032189050840296B884201D02C
:101100000120FEBD0020FEBD094910B5401E8842E9
:1011100001D9012010BD074C60610321081F00F0B8
:101120004BFA0020A06107202061002010BD0000C4
:10113000FFFFFF0000E000E0F0B502462032137E22
:10114000012B15D0012717760223537605686C68AA
:10115000AB687026B4430E68496826438024A343D5
:1011600019436E6000688160577600201076F0BDEC
:101170000220F0BD704770B5044600680169002583
:10118000C9438907002915DBC168C943890711D400
:10119000E91E0161012020762068806980072046D1
:1011A00002D0FFF7E7FF04E000F09EF8204600F0D1
:1011B0003DF9257620680169C943490717D4C168FC
:1011C000C943490713D40421C94301610220207691
:1011D000206880698005800F204602D0FFF7CAFF93
:1011E00004E000F081F8204600F020F92576206820
:1011F0000169C943090716D4C168C943090712D454
:101200000821C9430161042020762068C069800755
:10121000204602D0FFF7AEFF04E000F065F820465C
:1012200000F004F9257620680169C943C90617D47E
:10123000C168C943C90613D41021C94301610820FC
:1012400020762068C0698005800F204602D0FFF715
:1012500091FF04E000F048F8204600F0E7F825761A
:1012600020680169C943C90708D1C168C943C907D2
:1012700004D1891E0161204600F0EBF82068016965
:10128000C943490609D4C168C943490605D4402168
:10129000C9430161204600F0DDF870BD10B586B08D
:1012A000044614216846FEF75EFF01212068890785
:1012B000884214D10B48C16A01221143C162C06A3D
:1012C0006946104005909002009002200190002095
:1012D00002900390052004900007FFF71DFA06B066
:1012E00010BD0000001002407047F8B506460446E5
:1012F0002036307E0D4601280DD0012030760220A8
:1013000070760427002A08D0042A16D0082A2AD08A
:101310000C2A4DD137E00220F8BD206800F059FAC0
:101320002068816908221143816120688169B9437D
:10133000816120688169EA6812E0206800F061FA42
:10134000206882690121C9020A438261206881699B
:10135000012292029143816120688169EA68120248
:101360001143816124E0206800F064FA2068C269BA
:1013700008210A43C2612068C169B943C16120687C
:10138000C169EA6812E0206800F06FFA2068C1695C
:101390000122D2021143C1612068C2690121890280
:1013A0008A43C2612068C169EA6812021143C161BF
:1013B0000120707600203076F8BD70B5040005D0AD
:1013C00025462035687E002802D006E0012070BD49
:1013D00000202876204600F00BF802206876211DB8
:1013E000206800F0C5F901206876002070BD00007B
:1013F00000B50D4887B0826B01210A438263C26A3F
:101400000A43C262C06A029108400590022000901F
:101410000190032104900391052069460007FFF71E
:101420007BF907B000BD000000100240704710B506
:1014300004460068012200F0BFF92068816849076E
:10144000490F062903D001680122114301600020E1
:1014500010BD70477047704710B501684A68D243A5
:10146000920507D48A68D243D20703D1921E8A60BC
:10147000FFF7F1FF10BDFEE730B587B014216846D5
:10148000FEF771FE0E48C26A04210A43C262C06AB6
:101490000C4D0840059008030090012000240290A4
:1014A000019469462846FFF737F928010090022089
:1014B0000290019469462846FFF72EF907B030BD27
:1014C000001002400008005000B587B014216846A3
:1014D000FEF749FE0D48C26A01210A43C262C06A92
:1014E0000091084005900A48019002910520694644
:1014F0000007FFF711F9002202210520FFF750FA3B
:101500000520FFF743FA07B000BD000000100240BD
:1015100000002110F0B587B014216846FEF723FEC5
:101520001748C16A01252943C162C16A2940059152
:10153000C16A02263143C162C06A052730403F07B5
:1015400005900022E4213846FFF799F90022022194
:101550000C48FFF794F9E4200024009002946946B7
:10156000019503943846FFF7D7F802946946054879
:10157000009601950394FFF7CFF807B0F0BD000087
:10158000001002400004005010B5084806490160F0
:10159000062141600649C1608160FFF77DF900289E
:1015A00001D0FEF79CFE10BD003000402C00002052
:1015B000FF0F0000704700008307FF22DB0E9A40F8
:1015C0008907090E994000280BDA0007000F083838
:1015D000830808489B001818C36993430B43C361F1
:1015E0007047830804489B001B1818689043084301
:1015F0001860704700ED00E000E400E070477047BD
:1016000010B5FFF783F910BD10B598B034216846C6
:10161000FEF7A9FD14210DA8FEF7A5FD182112A8BB
:10162000FEF7A1FD174801680322D2029143C214BC
:10163000891801600A2000901020049002200121E6
:1016400009900024400505910C9003910A940B9495
:101650006846FFF743FB0F200D9003200E900F9478
:101660001094012111940DA8FFF746FA2220129040
:10167000012040041390149412A8FFF795F918B0B4
:1016800010BD000000700040104801688215114331
:101690000160C1680E4A1140C16001680D4A1140E5
:1016A0000160816849084900816001680122920453
:1016B00091430160C168FD2212049143C160002181
:1016C00001610549C00388607047000000100240B6
:1016D0000C40FF88F6FFF6FE00ED00E010B5024872
:1016E000FFF749FD10BD0000D400002030B587B0E1
:1016F0000024059401251C4804940094019402944C
:10170000AD070394056017218460416004611749A7
:101710004461C160FFF751FE002801D0FEF7DFFDF4
:10172000049404A910480594FFF706FD002801D091
:10173000FEF7D5FD602000900194029404226946D2
:1017400003940948FFF7D1FD002801D0FEF7C7FD3B
:1017500004210548FFF76BFE0348FFF79FFD0020BB
:10176000A86307B030BD000098000020E703000028
:1017700030B5026801239B070E4C984201D0A0426D
:1017800003D17025AA434D682A43984201D0A04254
:1017900004D103231B029A43CB681A4380239A4344
:1017A0000B691A4302608A68C2620968816201217A
:1017B000416130BD0008014010B5CB06DB0E0121B0
:1017C000046A99408C430462016A9A4011430162A1
:1017D00010BD30B5026A520852000262026A4568C2
:1017E00083697024A3439C080B68A400234302244C
:1017F000A2438C6845601443836149684163046275
:1018000030BD30B5026A10239A430262036A45680C
:10181000826973242402A2430C6824021443202208
:1018200093438A68456012011A4384614968816361
:10183000026230BD30B5026AFF2301339A4302626F
:10184000026A4568C3697024A3439C080B68A4001E
:10185000234301246402A2438C684560240214439C
:10186000C3614968C163046230BD30B5026A0123B7
:101870001B039A430262036A4568C2697324240207
:10188000A2430C68240214430122520393438A6842
:10189000456012031A43C46149680164026230BDA5
:1018A00001218907886370470348C178002902D164
:1018B0008168491C816070470C00002010B5024807
:1018C000FFF7CAFD10BD00001800002002E008C8A4
:1018D000121F08C1002AFAD170477047002001E0AA
:1018E00001C1121F002AFBD17047000070B53E4CA9
:1018F0006068C117890F091889088900401A09D042
:10190000012828D0FF25F4356E00022849D003288D
:1019100044D149E000231A461946012000F002F99B
:101920002520FFF7BDFF1420FEF7B2FE4B20FFF786
:10193000B7FF1420FEF7ACFE9620FFF7B1FF0A2098
:10194000FEF7A6FEFF207830FFF7AAFF0A20FEF779
:101950009FFE264820E000231A460121184600F089
:10196000E1F82B20FFF79CFF1420FEF791FE562094
:10197000FFF796FF1420FEF78BFEAC20FFF790FFD9
:101980000A20FEF785FEFF20AF30FFF789FF0A200F
:10199000FEF77EFED7208000FFF782FF0020E07078
:1019A00070BD0023012201E001230022002108462E
:1019B00000F0B8F83120FFF773FF1420FEF768FE3F
:1019C0006320FFF76DFF1420FEF762FEC720FFF7CC
:1019D00067FF0A20FEF75CFE2846FFF761FF0A203A
:1019E000FEF756FE3046D7E70C000020EE0200005E
:1019F00010B50448012141700021C1700846FFF76D
:101A00004FFF10BD0C000020104A00215268D31770
:101A10009B0F9B189B089B00D31A09D0012B0CD05D
:101A2000FF380B4A6038022B0BD0032B0CD108E097
:101A3000074AFF3846321A3803E0054AFF38323287
:101A40002E38904200D20121084670470C00002039
:101A5000590A000010B50248FEF750FF10BD000003
:101A60002C0000201CB50A48009000140190694623
:101A70000848FEF735FC0748FEF7DCFD6421054801
:101A8000FEF778FD0348FEF765FC80B21CBD000040
:101A9000100000103C00002010B50121890303480C
:101AA000FEF7E8FE012800D0002010BD000800501D
:101AB0001CB50A4800904002019069460848FEF7AC
:101AC0000FFC0748FEF7B6FD64210548FEF752FDFE
:101AD0000348FEF73FFC80B21CBD00000800000C6C
:101AE0003C0000200148C078704700000C00002036
:101AF00001488068704700000C000020034800780F
:101B0000042801D000207047012070470C000020FD
:101B100010B5002202210248FEF7B1FE10BD000000
:101B200000040050F8B505273F071C4615460E4631
:101B300001281AD0002204213846FEF7A0FE012E0B
:101B400015D0002220213846FEF799FE012D10D035
:101B5000002240213846FEF792FE012C0BD00022D5
:101B600080213846FEF78BFEF8BD0122E3E7012213
:101B7000E8E70122EDE70122F2E70000FEF7CEFEE2
:101B8000FFF742FDFFF7C6FCFEF748FB4B20C821DC
:101B90008001FFF7ABFDFFF797FCFFF76DFC2D48C9
:101BA000816B020411438163FFF754FFFFF7ECFCE4
:101BB000FFF750FFFFF77CFF0546FA20FEF768FDB0
:101BC000FFF750FF0446FFF767FF0646FFF78AFF5F
:101BD000002E07D1E12109018C4203D2002801D156
:101BE000FEF764FBFFF758FF012801D100F0C2F8AF
:101BF0002846FFF709FF002801D000F0BBF8FA20C3
:101C0000FEF746FDFFF750FEFFF772FF0446FFF7B1
:101C100075FF002818D120463A3802280BD9801EBB
:101C20003A280FD93A38022805D9801E3A2809D90E
:101C30003A38022802D8FFF7DBFE05E02046B43828
:101C40003A2801D8FFF752FEEE2CB1DD00F092F8F1
:101C5000AEE700000010024070B5444CA0780028A8
:101C60007CD06068401CC117890F09188908890059
:101C70006060401A09D0012828D0FF25F4356E0095
:101C8000022845D003286DD145E000231A461946A5
:101C90000120FFF747FF2520FFF702FE1420FEF783
:101CA000F7FC4B20FFF7FCFD1420FEF7F1FC96201B
:101CB000FFF7F6FD0A20FEF7EBFCFF207830FFF778
:101CC000EFFD0A20FEF7E4FC294843E000231A4612
:101CD00001211846FFF726FF2B20FFF7E1FD142016
:101CE000FEF7D6FC5620FFF7DBFD1420FEF7D0FCF4
:101CF000AC20FFF7D5FD0A20FEF7CAFCFF20AF306D
:101D0000FFF7CEFD0A20FEF7C3FCD720800021E0BC
:101D10000023012201E00123002200210846FFF7F1
:101D200001FF3120FFF7BCFD1420FEF7B1FC63205A
:101D3000FFF7B6FD1420FEF7ABFCC720FFF7B0FDA0
:101D40000A20FEF7A5FC2846FFF7AAFD0A20FEF7A9
:101D50009FFC3046FFF7A4FD04E0FFE70120A070E0
:101D6000FFF7C4FD0020E070A06070BD0C000020F3
:101D7000EE02000070B5084C012565700020A070CF
:101D8000FFF78EFD00231A4619461846FFF7CAFED4
:101D9000FFF7BEFEE57070BD0C00002000000000E3
:101DA00000000000010203040607080903040608F6
:101DB0000C10182030000000D81D00080000002082
:101DC00018000000CC180008F01D000818000020C2
:101DD000F8040000DC1800080000000000002000EB
:101DE00000000000010000010000000000000000F1
:04000005080000C12E
:00000001FF
