:020000040800F2
:10000000A0050020D5000008F1180008BB17000863
:1000100000000000000000000000000000000000E0
:100020000000000000000000000000003B19000874
:100030000000000000000000391900083D19000808
:10004000BD1F0008000000000501000805010008B0
:1000500005010008850300080501000805010008E6
:100060000000000005010008050100080501000866
:100070000501000805010008000000000501000856
:100080000000000000000000000000000000000070
:10009000191A000800000000000000000501000817
:1000A0000000000005010008000000000000000042
:1000B0000501000805010008000000000000000024
:1000C0000348854600F0C0F800480047192400089E
:1000D000A00500200C4880F308880C480168090E30
:1000E0000B4A914205D10B480B4901600B480C4962
:1000F00001600C4880470C480047FEE7FEE7FEE73A
:10010000FEE7FEE7FEE70000A00500200400000077
:100110001F000000341002400100000000000140F8
:1001200000000000C5190008C100000830B50B46EA
:10013000014600202022012409E00D46D5409D42C1
:1001400005D31D469540491B254695404019154647
:10015000521E002DF1DC30BD70B50024254600286C
:1001600001DA01244042002901DA01254942FFF762
:10017000DDFFAC4200D04042002C00D0494270BDAF
:10018000F0B51FB40646002082B005464024019118
:1001900000901BE0019922460F46304600F042F8DD
:1001A000049A059B801A994110D31046194622469D
:1001B00000F028F8361A8F410197224601200021CD
:1001C000009F00F01FF838184D4100902046641E33
:1001D0000028DFDC019B00982946324607B0F0BDBD
:1001E000D2B201E00270401C491EFBD270470022CF
:1001F000F6E710B513460A4604461946FFF7F0FF26
:10020000204610BD10B5202A04DB0146203A91405B
:10021000002010BD914020239C1A0346E34019435F
:10022000904010BD10B5202A04DB0846203AD0408B
:10023000002110BD0B46D340D0402024A21A91408B
:100240000843194610BD0000064C0125064E05E086
:10025000E36807CC2B430C3C98471034B442F7D3E7
:10026000FFF732FFB8270008D8270008F8B5044682
:10027000006881688907890F012902D10168C907CF
:1002800029D18168154A102611400125002915D170
:10029000816829438160134811490068FFF746FFD0
:1002A00000E0401E00900028FBD100F0B9FB07469B
:1002B0000CE000F0B5FBC01B0A2807D9606D304385
:1002C0006065A06D2843A0650120F8BD2068006826
:1002D000C043C007EDD10020F8BD0000170000802A
:1002E00040420F00140000201CB500211948009165
:1002F000174A01910260016401224164D3078164BD
:100300004360C26381600223836302610346C1606C
:1003100020331970FF245970C234446281621A7309
:100320008261042342634361C261016300F0D0F83B
:10033000002801D000F08CF8074800906946054875
:1003400000F088F8002801D000F082F81CBD000001
:1003500000240140C80000201000001010B507491B
:100360000868401C0860C107054804D0002202212B
:1003700000F04FFB10BD0122F9E700001C00002037
:100380000004005010B5012000F084FA10BD0000F8
:10039000F0B587B024A001F019FE274800250561BB
:1003A000856100F099FB00F08FFB244CE06801218F
:1003B000C9030843E060E06A01210843E062E06AA3
:1003C00008400590E06A02263043E062E06A30406F
:1003D0000590E06A04273843E062E06A69463840E5
:1003E000059017480090032001900295154800F0F1
:1003F0005DFA6946144800F059FAE06AB043E062D9
:10040000E06AB843E062A06B40084000A06301F0DE
:10041000F3F90E484560056001F040FF01210846F0
:1004200000F062FB07B0F0BD656E746572207374F6
:100430006F700D0A0000000000E000E000100240B4
:10044000FFFF0000000400500008005000000020E2
:1004500070470000F0B502464032137C012B0ED0ED
:100460000123137403689C6865070024002D08DAD3
:10047000416D20231943416514740120F0BD022011
:10048000F0BD0F4F4E68BD05BE420E489E6A0F6814
:1004900009D07F037F0B3E439E62096889030CD518
:1004A0008168294308E07F037F0BBE439E62096891
:1004B000890302D58168A943816014740020F0BDCE
:1004C00001100000002701400068006C7047000028
:1004D00070B5040006D0606D264600254036002821
:1004E00002D006E0012070BDA5653574204600F0FD
:1004F000D3F8606DC00603D421688868400705D52D
:10050000606D1021084360653574EBE7606DFF2274
:100510000132904302221043606588688207920F7F
:100520005B48012A02D10A68D2072BD103236268F3
:100530009B079A4205D05B429A4202D05B009A42E6
:1005400009D10A69920092080A6121680A69636800
:100550001A430A610CE00A69920092080A618168F4
:100560000F22920491438160816862681143816027
:100570002168CA6818239A43CA602168CA68A368B8
:100580001A43CA60816801225206914381608168E2
:10059000A28E52061143816020688168C90004D48C
:1005A000816801221207114381602068C168394ABD
:1005B0001140C1602069E168022825D00020014374
:1005C000204620300278037B52035B001A4311431C
:1005D000226B1143A26992031143E269D2031143D2
:1005E0002268D3681943D160616A0A46FF3AC23A69
:1005F00005D0A26A11432268D3681943D1604278BA
:100600000121012A02D00BE00420D8E7007800285D
:1006100023D0606D202210436065A06D0843A06563
:10062000E06B012820681FD00169C90703D0016968
:1006300049084900016120684169C908C900416150
:1006400020684169A26B11434161A565606D800816
:100650008000401C6065002070BD2068C2680123D6
:100660001B041A43C260DBE70269FF239B009A4325
:10067000026120680269236CA66C1A43636C3343E1
:100680001A430261206802690A430261D3E700004D
:10069000002701401902FEFF10B586B00446142160
:1006A0006846FFF7A4FD0E492068884216D10D4820
:1006B000416B421511434163C16A01221143C1627A
:1006C000C06A6946104005901820009003200190F0
:1006D000002002900520000700F0E8F806B010BDE9
:1006E0000024014000100240F8B504464069254648
:1006F00040350E4608280BD02068C068C00709D0D6
:10070000606D202108436065002028740120F8BD39
:10071000082700E00C2700F083F9009011E0701C1E
:100720000FD0002E05D000F07BF90099401AB0429E
:1007300007D9606D042108436065002028740320F8
:10074000F8BD206800683842E9D0606D0121490297
:10075000084360652068C16809058A0F0C21002ADA
:100760001BD12022125D002A17D10268120714D56E
:10077000826853070122002B08DB43688B434360E8
:10078000606D130298431043606506E0606D20239E
:1007900018436065A06D1043A065A069002801D1D1
:1007A000206801600020F8BD70B504462168002073
:1007B0008968490721D425464035297C01291CD068
:1007C00001212974E169012904D02046FFF74EFD7B
:1007D000002811D1616D0A4A1140FF2201321143F4
:1007E00061650021A165297422681C2111602168BE
:1007F0008A6804231A438A6070BD022070BD00001D
:10080000FEF1FFFF70B5012823D11E4800240168C6
:10081000002913D10121016000F010F901F092F8D4
:1008200001F010F8FFF760FD4B20C821800101F0B6
:10083000FBF800F0C3FF14A001F0C8FB0A2001F090
:1008400033FD05252D070121284600F0DDF800289D
:1008500006D070BD0520641C01F026FD642C0EDA64
:100860000121284600F0D0F80028F3D0642C06DAE5
:1008700001F07CFD0028ECD101F080FE70BD01F09C
:1008800053FF70BD040000207765616B75700D0A21
:100890000000000010B504494A69024202D04861D4
:1008A000FFF7B0FF10BD000000040140F8B50023C1
:1008B000012498E027469F403A4070D04D68022DB1
:1008C00001D0122D14D1DD08AD002D1800952D6A30
:1008D0005E07AC46F50E0F26AE46AE406546B54304
:1008E000AC460E697546AE4065462E43009D2E62AD
:1008F0004D68012D05D0022D03D0112D01D0122DF0
:1009000016D185680326AC465D00AE46AE4065460E
:10091000B543AC46CE687546AE4065462E4386600C
:1009200046680D79BE43ED06ED0F9D4035434560A9
:1009300006685F000325BD40AE46AE430D79B44660
:10094000AE07B60FBE4065462E430660C6687546C4
:10095000AE438D68BD403543C5604D68ED0041D55F
:10096000244D6E6B26436E639E08234DB6007519A9
:10097000AC46AD689E07360F0F27B740BD4305272D
:100980003F07B84201D100270BE01C4FB84201D10C
:10099000012706E01A4FB84202D1022701E021E008
:1009A0000627B7402F436546AF60164D2E684F6847
:1009B0009643FF0300D516432E606E684F6896433A
:1009C000BF0300D516436E60AE684F689643FF02C2
:1009D00000D51643AE60EE684F689643BF0200D55F
:1009E0001643EE605B1C0A681546DD4000D061E7E7
:1009F000F8BD00000010024000000140000400505B
:100A000000080050000401400069084000D00120A7
:100A10007047002A01D081617047816270470000F1
:100A2000014800687047000010000020024801687B
:100A3000491C0160704700001000002010B50848F4
:100A400000240168402211430160204600F00AF8AA
:100A5000002801D0012401E000F01CF8204610BD60
:100A60000020024070B5054609487D210024C900D8
:100A70000068FFF75BFB00F021FC002801D0012497
:100A800004E000222946501E00F01AF8204670BDEE
:100A9000140000200448416B012211434163816B23
:100AA000020411438163704700100240C106C90E61
:100AB00001208840014908607047000000E100E023
:100AC00010B500F017FF10BD024801680215114370
:100AD00001607047007000400248016842151143F0
:100AE00001607047007000400A4B1A68920892003B
:100AF00002431A6008480369042213430361012971
:100B000006D040BF20BF20BF0169914301617047FB
:100B100030BFF9E70070004000ED00E0F8B5044692
:100B200000784F4D800672D54D4E0027403EB06B89
:100B3000C00004D4B06BA9050843B063012749483D
:100B40000168C90511D40168821511430160FFF7DE
:100B500067FF009005E0FFF763FF0099401A6428E3
:100B600037D840480068C005F5D53268032109052B
:100B700060680A400140914208D08103890F03292F
:100B800004D13168890301D50120F8BD2A69032108
:100B900009040A4022D0084090421FD020788006E5
:100BA0001CD528692A6988430121C9040A432A619E
:100BB0002A698A432A612861C0050FD5FFF730FFF3
:100BC000009008E0FFF72CFF0099411A2648814267
:100BD00001D90320F8BD28698005F3D56168880331
:100BE000800F032805D132680005824301400A4383
:100BF00032602869032261681204114008432861A9
:100C0000002F04D0B16B012000078143B16320782D
:100C1000800705D5E8680C218843A1680843E8608F
:100C20002078400706D5E868032189028843E168F7
:100C30000843E8602078000706D5E8680321090327
:100C4000884321690843E8602078000606D5E868F3
:100C500003218904884361690843E8600020F8BDE6
:100C6000401002400070004088130000F8B50E46A6
:100C700005007DD053480068C007C00FB0420AD2BB
:100C80005048016849084900314301600068C007C5
:100C9000C00FB04271D128784B4C800705D5E06871
:100CA000F0218843A9680843E0602878C00752D043
:100CB0006868022817D0032818D02168012818D0A6
:100CC0008905002959DAE168890889000143E16052
:100CD000FFF7A6FE69680746022912D003291CD037
:100CE000012926D033E021688903EAE721688901D8
:100CF000E7E74907E5E7FFF793FEC11B3348814269
:100D000023D8E0680007800F0228F4D123E0FFF722
:100D100087FEC11B2D48814217D8E0680007800F6D
:100D20000328F4D117E0FFF77BFEC11B274881425F
:100D30000BD8E0680007800F0128F4D10BE0FFF723
:100D40006FFEC11B2148814201D90320F8BDE06834
:100D50000007800FF3D11B480168C907C90FB142D2
:100D60000DD901684908490031430160006800E07D
:100D700003E0C007C00FB04201D00120F8BD2878C1
:100D8000400706D5E068072109028843E96808435F
:100D9000E0602878000707D5E0680721C90288438A
:100DA0002969C9000843E06000F036F8E168084AA4
:100DB0000906090F515CC840064908600020FFF78A
:100DC00051FEF8BD002002400010024088130000D0
:100DD0005027000814000020044805490068C9682D
:100DE000044A4905490F515CC8407047140000206F
:100DF0000010024069270008044805490068C968D6
:100E0000044A8904490F515CC8407047140000200F
:100E1000001002406927000810B5184AD1680C205C
:100E2000084004280BD0082810D00C2810D0506897
:100E30000004410F0120C003491C884010BD106808
:100E4000C00601D50E4810BD0E4810BD0E4810BD9D
:100E500088020E4B000F185C0902D368890F491CE9
:100E6000DB0301D5084A05E01268D20601D5044A21
:100E700000E0044A5043FFF759F910BD001002404A
:100E800000093D000024F40000127A0060270008E9
:100E9000FEB505007ED0FE4CE7680C20E6680740F2
:100EA0000120000406402878C00747D0082F05D04D
:100EB0000C2F0AD101200004864206D1206880034D
:100EC0003CD568680028E5D038E001206968000456
:100ED000814203D121680143216011E005230122F1
:100EE0001B0492049942216802D111432160F1E769
:100EF0008143216021680140009120689043206077
:100F0000686800280DD0FFF78BFD009005E0FFF723
:100F100087FD0099401A64287ED820688003F6D5A2
:100F20000CE0FFF77DFD009005E0FFF779FD0099EB
:100F3000401A6428F0D820688003F6D42878800707
:100F40005CD5E868810604D5226820210A43226026
:100F500088430923042F0DD00C2F01D1002E09D076
:100F600000283BD02168994301432160FFF758FDD9
:100F7000064627E02168490701D500288AD0616824
:100F80001F22120291432A691202114361602168F3
:100F9000994300E08EE101432160FFF73DFFE168E6
:100FA00009060A0FBB49895CC840BB49086000209C
:100FB000FFF758FD002873D120E0FFF731FD801BBB
:100FC0000228A9D820684007F7D560681F210902C8
:100FD000884329690902084360600FE020684008DF
:100FE00040002060FFF71CFD064604E0FFF718FDF7
:100FF000801B022890D820684007F7D42878C006C4
:1010000060D5002F0DD0A86900284AD02068FF21A4
:1010100001310843206000E0C4E0FFF701FD06460F
:101020002CE02068800502D5A8690028A6D0606859
:10103000072149038843296A084360606068297F63
:101040000002000A090608436060286A410B01207B
:10105000C003491C8840E16809060A0F8D49895C74
:10106000C8408D4908600020FFF7FCFC002817D11C
:1010700028E0FFF7D5FC801B0228A2D82068800555
:10108000F7D56068072149038843296A08436060EF
:101090006068297F0002000A09060843606011E0C9
:1010A000E1E02168FF20013081432160FFF7B8FCB7
:1010B000064604E0FFF7B4FC801B022872D82068C3
:1010C0008005F7D42878754E000724D56869002874
:1010D000306910D0012108433061FFF7A1FC009076
:1010E00005E0FFF79DFC0099401A02285AD83069A4
:1010F0008007F6D50FE0400840003061FFF790FC14
:10110000009005E0FFF78CFC0099401A022849D8AE
:1011100030698007F6D42878400765D50020029012
:10112000A06BC00006D4A06B012109070843A0638F
:10113000012002905A480168C90511D4016882153E
:1011400011430160FFF76CFC009005E0FFF768FCBD
:101150000099401A642825D851480068C005F5D583
:10116000FF20AA680130824203D131690143316115
:1011700011E001218902002A07D005231B029A42AF
:1011800003D132690A433261EFE732698243326147
:10119000306988433061A86800280FD0FFF740FC11
:1011A000009007E05EE0FFF73BFC0099411A3D48E4
:1011B000814257D830698005F5D50DE0FFF730FC46
:1011C000009006E0FFF72CFC0099411A3548814257
:1011D00048D830698005F5D40298002804D0A16B66
:1011E000012000078143A163686A002864D00C2FA6
:1011F0003ED0012636060228206805D0B043206084
:10120000FFF70EFC05462FE0B0432060FFF708FC17
:10121000074604E0FFF704FCC01B022822D8206820
:101220008001F7D4E96AA86AE2680843296BFD23C4
:101230001B049A4311430843E06020683043206058
:10124000FFF7EEFB054604E0FFF7EAFB401B022830
:1012500008D820688001F7D52EE0FFF7E1FB401B9E
:10126000022801D90320FEBD20688001F5D423E0C7
:101270000128F8D0E06801210904AA6A01409142DE
:1012800018D10F218904EA6A0140914212D10BE082
:1012900000100240502700081400002040100240B7
:1012A0000070004088130000032189050840296B65
:1012B000884201D00120FEBD0020FEBD094910B5C5
:1012C000401E884201D9012010BD074C60610321F6
:1012D000081F00F00FFB0020A06107202061002004
:1012E00010BD0000FFFFFF0000E000E0F0B5024687
:1012F0002032137E012B15D0012717760223537657
:1013000005686C68AB687026B4430E68496826436C
:101310008024A34319436E600068816057760020E3
:101320001076F0BD0220F0BD704770B5044600682D
:1013300001690025C9438907002915DBC168C94334
:10134000890711D4E91E0161012020762068806997
:101350008007204602D0FFF7E7FF04E000F09EF888
:10136000204600F03DF9257620680169C943490708
:1013700017D4C168C943490713D40421C943016183
:1013800002202076206880698005800F204602D0E8
:10139000FFF7CAFF04E000F081F8204600F020F9D2
:1013A000257620680169C943090716D4C168C94375
:1013B000090712D40821C94301610420207620685E
:1013C000C0698007204602D0FFF7AEFF04E000F0BE
:1013D00065F8204600F004F9257620680169C943C4
:1013E000C90617D4C168C943C90613D41021C9431B
:1013F0000161082020762068C0698005800F2046A2
:1014000002D0FFF791FF04E000F048F8204600F01A
:10141000E7F8257620680169C943C90708D1C16882
:10142000C943C90704D1891E0161204600F0EBF8C9
:1014300020680169C943490609D4C168C9434906FE
:1014400005D44021C9430161204600F0DDF870BD9C
:1014500010B586B0044614216846FEF7C8FE012187
:1014600020688907884214D10B48C16A01221143C0
:10147000C162C06A69461040059090020090022047
:101480000190002002900390052004900007FFF7D0
:101490000DFA06B010BD0000001002407047F8B50C
:1014A000064604462036307E0D4601280DD0012028
:1014B0003076022070760427002A08D0042A16D03D
:1014C000082A2AD00C2A4DD137E00220F8BD206826
:1014D00000F035FB20688169082211438161206892
:1014E0008169B943816120688169EA6812E02068F6
:1014F00000F03DFB206882690121C9020A43826134
:10150000206881690122920291438161206881698A
:10151000EA6812021143816124E0206800F040FB78
:101520002068C26908210A43C2612068C169B943C1
:10153000C1612068C169EA6812E0206800F04BFBD5
:101540002068C1690122D2021143C1612068C269C9
:10155000012189028A43C2612068C169EA681202D6
:101560001143C1610120707600203076F8BD70B55E
:10157000040005D025462035687E002802D006E00C
:10158000012070BD00202876204600F00BF80220D4
:101590006876211D206800F0A1FA012068760020FD
:1015A00070BD000000B50D4887B0826B01210A4371
:1015B0008263C26A0A43C262C06A0291084005900F
:1015C00002200090019003210490039105206946B8
:1015D0000007FFF76BF907B000BD000000100240E4
:1015E000704710B504460068012200F09BFA20689D
:1015F00081684907490F062903D001680122114378
:101600000160002010BD7047704710B5040003D082
:10161000606F002802D007E0012010BD002170207B
:101620000155204600F026F82420606720680168F4
:10163000490849000160204600F08CFB0128ECD0ED
:10164000606A002802D0204600F0EEFA2068416867
:101650000922D20291434160206881682A22914385
:10166000816020680168012211430160204600F07A
:1016700041FB10BD10B586B0044614216846FEF744
:10168000B6FD1049206888421AD10F48816B0122AB
:10169000520411438163C26A01210A43C262C06AD3
:1016A000029108400590480200901220019003200A
:1016B000039004200490052069460007FFF7F6F820
:1016C00006B010BD0044004000100240FFB50446C3
:1016D000406F83B017460D4620285CD1002D0AD0FC
:1016E000002F08D0A168C001814207D120690028DD
:1016F00004D1E80702D0012007B0F0BD20466030D9
:101700000290007C012846D002980121017400203B
:10171000E06721206067FFF783F926464036019095
:10172000378277820120A1680003814202D12069BB
:10173000002802D02F46002511E000270FE00022EC
:101740008021204600F008FC002815D1002F15D07C
:101750002168387888627F1C708A401E7082708A87
:10176000019B002806980090E9D1002240212046E4
:1017700000F0F2FB002808D00320BDE7288821688C
:10178000C005C00D8862AD1CE6E7202060670299A5
:1017900000200874B0E70220AEE7704710B501687A
:1017A0004A68D243920507D48A68D243D20703D14C
:1017B000921E8A60FFF7F1FF10BDFEE700B587B00B
:1017C00014216846FEF713FD0948C26A04210A4342
:1017D000C262C06A08400590080300900020019092
:1017E0000220029069460348FFF760F807B000BD89
:1017F000001002400008005000B587B01421684670
:10180000FEF7F5FC0D48C26A01210A43C262C06AB4
:101810000091084005900A48019002910520694610
:101820000007FFF743F8002202210520FFF748F9DF
:101830000520FFF73BF907B000BD00000010024093
:1018400000002110F0B587B014216846FEF7CFFCE8
:101850001748C16A01252943C162C16A294005911F
:10186000C16A02263143C162C06A052730403F0782
:1018700005900022E4213846FFF7CBF80022022130
:101880000C48FFF7C6F8E420002400900294694653
:10189000019503943846FFF709F802946946054814
:1018A000009601950394FFF701F807B0F0BD000022
:1018B000001002400004005010B50C480A490160B5
:1018C0004B21C901416000218160C16001618161DA
:1018D000C1610C22016242614162FFF796FE00285D
:1018E00001D0FEF7B5FD10BD0044004034000020DB
:1018F000704700008307FF22DB0E9A408907090E1C
:10190000994000280BDA0007000F083883080848C0
:101910009B001818C36993430B43C3617047830846
:1019200004489B001B1818689043084318607047D0
:1019300000ED00E000E400E07047704710B5FFF7ED
:1019400075F810BD10B598B034216846FEF74FFC0D
:1019500014210DA8FEF74BFC182112A8FEF747FC36
:10196000174801680322D2029143C214891801600A
:101970000A200090102004900220012109900024E8
:10198000400505910C9003910A940B946846FFF76B
:101990007FFA0F200D9003200E900F9410940121D8
:1019A00011940DA8FFF762F9222012900120400443
:1019B0001390149412A8FFF7B1F818B010BD0000EE
:1019C0000070004010480168821511430160C16831
:1019D0000E4A1140C16001680D4A114001608168E2
:1019E0004908490081600168012292049143016025
:1019F000C168FD2212049143C160002101610549C3
:101A0000C003886070470000001002400C40FF884F
:101A1000F6FFF6FE00ED00E010B50248FFF785FC8A
:101A200010BD00006001002030B529488DB0826BE8
:101A300001210A438263C26A0A43C262C06A084043
:101A40000B900220069104900590032108900791C5
:101A5000052004A90007FEF729FF00240A940125A8
:101A60001C480994009401940294AD070394056006
:101A7000172184604160046117494461C160FFF728
:101A800076FD002801D0FEF7E3FC099409A911486E
:101A90000A94FFF72BFC002801D0FEF7D9FC602048
:101AA0000090019402940422694603940948FFF7C8
:101AB000F6FC002801D0FEF7CBFC04210548FFF717
:101AC00090FD0448FFF7C4FC0020A8630DB030BDB2
:101AD0000010024024010020E703000030B5026836
:101AE00001239B070E4C984201D0A04203D17025E0
:101AF000AA434D682A43984201D0A04204D103234F
:101B00001B029A43CB681A4380239A430B691A43FA
:101B100002608A68C262096881620121416130BD48
:101B20000008014010B5CB06DB0E0121046A994084
:101B30008C430462016A9A401143016210BD30B5C2
:101B4000026A520852000262026A45688369702480
:101B5000A3439C080B68A40023430224A2438C687F
:101B600045601443836149684163046230BD30B508
:101B7000026A10239A430262036A456882697324E9
:101B80002402A2430C6824021443202293438A684F
:101B9000456012011A43846149688163026230BD65
:101BA00030B5026AFF2301339A430262026A456834
:101BB000C3697024A3439C080B68A4002343012439
:101BC0006402A2438C68456024021443C3614968DF
:101BD000C163046230BD30B5026A01231B039A431E
:101BE0000262036A4568C26973242402A2430C6836
:101BF000240214430122520393438A68456012036E
:101C00001A43C46149680164026230BD0121890739
:101C1000886370470348C178002902D18168491C54
:101C2000816070472000002010B5818CC90707D063
:101C300001684A6801235B049A43836A1A434A6035
:101C4000818C890707D501684A6801231B049A43E0
:101C5000C36A1A434A60818C490707D501684A68FC
:101C600001239B049A43036B1A434A60818C090742
:101C700007D501684A680123DB039A43436B1A4383
:101C80004A60818CC90607D50268916801231B034D
:101C90009943836B19439160818C890607D501684C
:101CA0008A6801235B039A43C36B1A438A60818C61
:101CB000490612D503685A6801210905046C8A4354
:101CC00022435A60026C8A4207D10268516803239A
:101CD0005B059943436C19435160818C090607D514
:101CE00001684A680123DB04806C9A4302434A601E
:101CF00010BD0000F8B500260446C667FEF790FE4A
:101D0000054620680068124F000709D501212B46BF
:101D1000002249052046009700F01EF900280DD149
:101D20002068006840070BD501212B460022890559
:101D30002046009700F010F9002801D00320F8BDDC
:101D400020206067A067603426740020F8BD000082
:101D5000FFFFFF01F8B504462669A268E769324330
:101D60006669102000253E432368324370491E688F
:101D7000704F3E4016431E602268536803263603A8
:101D8000B343E668334353602368A2698B4201D0B2
:101D9000266A32439E680B273F02BE4316439E606D
:101DA000654E2368654AB3420AD1D2680C26324098
:101DB00026D0042A28D0082A24D00C2A10D10EE0DC
:101DC0008B420DD1D66803229202164018D0012210
:101DD0009202B61A18D0B61A14D0964200D1082032
:101DE000564A0126403A564FF6038B4236D1002818
:101DF0000CD002280DD0042812D008281FD11CE0D6
:101E00000020EDE70220EBE70420E9E7FEF7E4FF1E
:101E100008E01068C00601D5384605E0494803E0EF
:101E2000FEF7FAFF002873D0626851005118814212
:101E300005D81103814202D303E03046F4E70125BF
:101E400066E0010E06025008002330185941FEF7E3
:101E500097F903210902411A3B4A55E0E169B14271
:101E600032D1030000F0C2F809070A0D0625060664
:101E7000062B0600E3E7FEF7AFFF1CE0FEF7BCFF12
:101E800019E010686168C00602D548082F4A01E0D1
:101E90002F4A48088018FEF749F980B201462D4ABA
:101EA00010399142CBD8511C01400007400F084324
:101EB0002CE0FEF7B1FF616840004A08EAE761687C
:101EC000012248081204E5E7030000F08FF8090733
:101ED0000A0D06260606062C0600B0E7FEF77CFF74
:101EE0001DE0FEF789FF1AE010686168C00602D5A0
:101EF0004808C01902E013484A081018FEF716F9FE
:101F000080B20146134A1039914298D82168C860BE
:101F10000020206660662846F8BDFEF77DFF6168F8
:101F20004A088018EAE7616848088019E6E7000077
:101F300000480040F369FFEF0044004040100240B9
:101F400000093D000024F400FFFC0F0000127A009D
:101F50000048E801EFFF0000FFB581B017460E46CC
:101F600004460A9D09E0681C07D0FEF759FD049954
:101F7000401AA8420CD8002D0AD02068C16930460A
:101F8000884318D00020B842EDD0002005B0F0BD45
:101F900020680168FF22A1329143016020688168B6
:101FA00049084900816020206067A06700206034F4
:101FB00020740320EAE70120E5E7000010B502489D
:101FC000FFF7ECFB10BD0000B40000200FB410B50B
:101FD00003A9044B044A029800F024F810BC08BC82
:101FE00004B01847C92200081800002030B4744615
:101FF000641E2578641CAB4200D21D46635D5B0005
:10200000E31830BC184702E008C8121F08C1002AB4
:10201000FAD170477047002001E001C1121F002A69
:10202000FBD17047FFB58DB00446002506E025289A
:102030000AD0109A0F999047641C6D1C20780028D4
:10204000F5D1284611B0F0BD00270121484A00977C
:1020500000E00743641C23780846203B9840104268
:10206000F7D120782E2817D1042007436078641C0C
:102070002A280CD10E98641C02C800910E900BE027
:1020800000990A22514330394018641C009020788E
:10209000014630390929F3D920780028D1D06428A5
:1020A00008D0692806D075281ED0109A0F9990473D
:1020B0006D1C5BE00A200E99019001C90E91002869
:1020C00002DA40422D2102E0390504D52B216A466F
:1020D0001172012103E0F90704D02021F7E70BAECC
:1020E0000B910DE00021FAE70A200E99019001C939
:1020F0000E91F7E70199FEF719F83031761E31702D
:102100000028F7D103A8801B20300190780701D563
:10211000009801E0012000900199884201DD401AF9
:1021200000E000200027009006E002A8109AC05DA1
:102130000F9990476D1C7F1C0B988742F5DB04E0DC
:10214000109A30200F9990476D1C0099481E0090FE
:102150000029F5DC05E03078109A761C0F9990473D
:102160006D1C0199481E01900029F4DC641C65E790
:102170000928010070B500F0B7F82E4C002804D0F3
:1021800000F0B2F801282DD050E06068C117890F27
:10219000091889088900401A07D001280ED0264D59
:1021A000022814D0032841D114E000231A4619460E
:1021B000012000F005F92048F83835E000231A46E0
:1021C0000121184600F0FCF8D72080002CE0002305
:1021D000012201E0012300220021084600F0F0F86E
:1021E000284621E06068C117890F0918890889000D
:1021F000401A06D0012809D002280BD0032815D197
:102200000BE000231A46194601200AE000231A4673
:10221000012105E00023012201E001230022002129
:10222000002000F0CDF80020FFF7F0FC0020E07067
:1022300070BD000020000020E603000010B5044837
:10224000012141700021C1700846FFF7DFFC10BD7D
:10225000200000200E49024649680020CB179B0F42
:102260005B189B089B00CB1A09D00A4951180A4AEF
:10227000012B09D0022B07D0032B08D104E005491C
:1022800032315118044A3232914200D20120704753
:1022900020000020A7FDFFFF5F090000014900208A
:1022A00088607047200000200022064B07E00021D4
:1022B00000BF00BF00BF491C9942F9DB521C82429B
:1022C000F5DB7047C409000038B504466846047061
:1022D0007D231B01012269460248FFF7F7F92046DA
:1022E00038BD00003400002010B50E4CE078002806
:1022F00012D000F021F8014620610BA0FFF766FE26
:102300000B49206940180B49884202D20020E06046
:1023100010BD0120E06002E0E0680028F8D0012054
:1023200010BD00002000002025640D0A0000000000
:102330003BF6FFFF560600001CB50A48009000144B
:10234000019069460848FEF785F80748FEF72CFA21
:10235000FF212D310448FEF7C7F90348FEF7B4F812
:1023600080B21CBD10000010C800002010B5FFF79F
:1023700025FA012189030348FEF746FB012800D016
:10238000002010BD00080050642070470148C0784C
:10239000704700002000002003480078042801D086
:1023A00000207047012070472000002010B5002257
:1023B00002210248FEF72DFB10BD00000004005072
:1023C000F8B505273F071C4615460E4601281AD0CA
:1023D000002204213846FEF71CFB012E15D00022F6
:1023E00020213846FEF715FB012D10D00022402198
:1023F0003846FEF70EFB012C0BD000228021384618
:10240000FEF707FBF8BD0122E3E70122E8E701221E
:10241000EDE70122F2E70000FEF710FBFFF792FA6A
:10242000FFF710FAFDF760FFFFF746FA4B20C821CF
:102430008001FFF7F9FAFFF7DFF9FFF7BFF94A4824
:10244000FFF7C4FD7D20C000FFF72EFFFDF7A0FFC2
:10245000464C474F20680921401C2060FDF77CFE58
:10246000002902D1FFF790FFE0603220FFF71CFF48
:10247000FFF77CFFA060FFF789FF0646092120686F
:10248000FDF76AFE00290AD1A068002807D1FFF7EE
:102490002BFF002803D0002E01D1FDF75FFFA068BD
:1024A000012801D100F040F9E068FFF7D3FE0028D1
:1024B00001D000F039F93220FFF7F6FEFFF7AAFB52
:1024C0002568002E3DD1FFF767FF002821D128465F
:1024D000FF3823380A2812D90146FF200A39233051
:1024E000814214D9234969180A2908D94B21C90006
:1024F000691A81420BD9204969180A2902D8FFF7C5
:102500009DFE06E0E1218900691A814201D8FFF7AA
:1025100031FEFFF73BFF002813D1FFF73DFF0128F5
:102520000FD1BD420DDA14212846FDF715FE05290D
:102530000CD00A290AD00F2908D0002906D0FFF7AD
:1025400019FEFFF723FF012803D004E0FFF776FE12
:10255000F7E700F0E9F8BD4200DC7BE700F0E4F8C3
:10256000FDF716FF76E70000742700080000002042
:10257000A6040000B2FDFFFF86FCFFFFF8B5644C27
:102580000125A07800287DD06068401C6060FFF7BE
:10259000ABFE02260327012804D0FFF7A5FE002882
:1025A00028D0ABE06068C117890F09188908890035
:1025B000401A06D001280AD002280DD00328F0D1F5
:1025C0000EE0002325701A46194601200EE0002374
:1025D00026701A46012108E000232770012203E03B
:1025E000042001232070002200210020FFF7E8FED4
:1025F00000207DE06068C117890F091889088900EB
:10260000401A09D0012829D0FF25F4356E00022890
:1026100049D0032872D14AE0002325701A46194692
:102620000120FFF7CDFE2520FFF7F0FA0A20FFF783
:102630003BFE4B20FFF7EAFA1420FFF735FE962009
:10264000FFF7E4FA0520FFF72FFEFF207830FFF7B1
:10265000DDFA0520FFF728FE2E4849E0002326700A
:102660001A4601211846FFF7ABFE2B20FFF7CEFAE2
:102670000A20FFF719FE5620FFF7C8FA1420FFF7CB
:1026800013FE00E037E0AC20FFF7C0FA0520FFF7AB
:102690000BFEFF20AF30FFF7B9FA0520FFF704FE6D
:1026A000D720800024E000232770012203E00420CB
:1026B00001232070002200210846FFF781FE31200F
:1026C000FFF7A4FA0A20FFF7EFFD6320FFF79EFA59
:1026D0001420FFF7E9FDC720FFF798FA0520FFF760
:1026E000E3FD2846FFF792FA0520FFF7DDFD3046AF
:1026F000FFF78CFA02E0A570FFF73CFD0020E070C8
:10270000A06005A0FFF762FCC820FFF7CDFDF8BD73
:1027100020000020EE0200006368616E6765206D96
:102720006F64650D0A00000070B5084C01256570E6
:102730000020A070FFF76AFA00231A4619461846CF
:10274000FFF73EFEFFF732FEE57070BD200000206F
:102750000000000000000000010203040607080951
:10276000030406080C1018203000000000010203CA
:102770000400000073797320737461727431313115
:102780003131313131313131313131313131313139
:102790003131313131313131313131313131313129
:1027A0003131313131313131313131313131313119
:1027B00031313131310D0A00D827000800000020E6
:1027C00034000000062000080C2800083400002017
:1027D0006C0500001620000800000000000000004A
:1027E00000000000000000000000000000002000C9
:1027F00000000000000000000100000100000000D7
:0C280000000000000000000000000000CC
:04000005080000C12E
:00000001FF
