:020000040800F2
:10000000C8040020D5000008A91100084710000806
:1000100000000000000000000000000000000000E0
:10002000000000000000000000000000F3110008C4
:100030000000000000000000F1110008F5110008A8
:100040000501000800000000050100080501000886
:100050000501000845020008050100080501000827
:100060000000000005010008050100080501000866
:100070000501000805010008000000000501000856
:100080000000000000000000000000000000000070
:100090000501000800000000000000000501000844
:1000A0000000000005010008000000000000000042
:1000B0000501000805010008000000000000000024
:1000C0000348854600F0ACF800480047E5190008F1
:1000D000C80400200C4880F308880C480168090E09
:1000E0000B4A914205D10B480B4901600B480C4962
:1000F00001600C4880470C480047FEE7FEE7FEE73A
:10010000FEE7FEE7FEE70000C80400200400000050
:100110001F000000341002400100000000000140F8
:10012000000000007D120008C100000830B50B4639
:10013000014600202022012409E00D46D5409D42C1
:1001400005D31D469540491B254695404019154647
:10015000521E002DF1DC30BDF0B51FB40646002064
:1001600082B005464024019100901BE0019922468F
:100170000F46304600F042F8049A059B801A9941D8
:1001800010D310461946224600F028F8361A8F413F
:100190000197224601200021009F00F01FF8381827
:1001A0004D4100902046641E0028DFDC019B009832
:1001B0002946324607B0F0BDD2B201E00270401CC1
:1001C000491EFBD270470022F6E710B513460A46D7
:1001D00004461946FFF7F0FF204610BD10B5202A4F
:1001E00004DB0146203A9140002010BD91402023BD
:1001F0009C1A0346E3401943904010BD10B5202AD5
:1002000004DB0846203AD040002110BD0B46D34005
:10021000D0402024A21A91400843194610BD000086
:10022000064C0125064E05E0E36807CC2B430C3C49
:1002300098471034B442F7D3FFF746FF7C1A000802
:100240009C1A000810B5012000F03CF810BD704762
:1002500070B5044600F0FCF80546601C00D0641C34
:1002600000F0F6F8401BA042FAD370BD70B501282B
:1002700018D10520FFF7ECFF05252D0700240121EB
:10028000284600F0D9F801280CD1FF26913601212B
:10029000284600F0D1F8012805D0A000211807A0B9
:1002A00001F0BCFA70BD0520641CFFF7D1FFB44219
:1002B000EDDB002001F0E4F8EFE7000074696D6504
:1002C0002025640010B504494A69024202D0486101
:1002D000FFF7CCFF10BD000000040140F8B500237B
:1002E000012498E027469F403A4070D04D68022D87
:1002F00001D0122D14D1DD08AD002D1800952D6A06
:100300005E07AC46F50E0F26AE46AE406546B543D9
:10031000AC460E697546AE4065462E43009D2E6282
:100320004D68012D05D0022D03D0112D01D0122DC5
:1003300016D185680326AC465D00AE46AE406546E4
:10034000B543AC46CE687546AE4065462E438660E2
:1003500046680D79BE43ED06ED0F9D40354345607F
:1003600006685F000325BD40AE46AE430D79B44636
:10037000AE07B60FBE4065462E430660C66875469A
:10038000AE438D68BD403543C5604D68ED0041D535
:10039000244D6E6B26436E639E08234DB60075197F
:1003A000AC46AD689E07360F0F27B740BD43052703
:1003B0003F07B84201D100270BE01C4FB84201D1E2
:1003C000012706E01A4FB84202D1022701E021E0DE
:1003D0000627B7402F436546AF60164D2E684F681D
:1003E0009643FF0300D516432E606E684F68964310
:1003F000BF0300D516436E60AE684F689643FF0298
:1004000000D51643AE60EE684F689643BF0200D534
:100410001643EE605B1C0A681546DD4000D061E7BC
:10042000F8BD000000100240000001400004005030
:1004300000080050000401400069084000D001207D
:100440007047002A01D081617047816270470000C7
:100450000148006870470000000000200248016861
:10046000491C0160704700000000002010B50848DA
:1004700000240168402211430160204600F00AF880
:10048000002801D0012401E000F01CF8204610BD36
:100490000020024070B5054609487D210024C900AE
:1004A0000068FFF743FE00F0F7FB002801D00124AD
:1004B00004E000222946501E00F01AF8204670BDC4
:1004C000040000200448416B012211434163816B09
:1004D000020411438163704700100240C106C90E37
:1004E00001208840014908607047000000E100E0F9
:1004F00010B500F05BFE10BDF8B5044600784F4D16
:10050000800672D54D4E0027403EB06BC00004D42B
:10051000B06BA9050843B063012749480168C905C4
:1005200011D40168821511430160FFF791FF00901B
:1005300005E0FFF78DFF0099401A642837D840483E
:100540000068C005F5D532680321090560680A40D6
:100550000140914208D08103890F032904D13168F9
:10056000890301D50120F8BD2A69032109040A4045
:1005700022D0084090421FD0207880061CD52869E0
:100580002A6988430121C9040A432A612A698A43E6
:100590002A612861C0050FD5FFF75AFF009008E0D7
:1005A000FFF756FF0099411A2648814201D90320DE
:1005B000F8BD28698005F3D561688803800F03289A
:1005C00005D132680005824301400A433260286940
:1005D000032261681204114008432861002F04D0EF
:1005E000B16B012000078143B1632078800705D5F6
:1005F000E8680C218843A1680843E8602078400738
:1006000006D5E868032189028843E1680843E86069
:100610002078000706D5E86803210903884321698B
:100620000843E8602078000606D5E86803218904BD
:10063000884361690843E8600020F8BD401002402B
:100640000070004088130000F8B50E4605007DD00C
:1006500053480068C007C00FB0420AD25048016832
:1006600049084900314301600068C007C00FB0422B
:1006700071D128784B4C800705D5E068F02188437C
:10068000A9680843E0602878C00752D0686802284B
:1006900017D0032818D02168012818D0890500290F
:1006A00059DAE168890889000143E160FFF7D0FE6B
:1006B00069680746022912D003291CD0012926D0D7
:1006C00033E021688903EAE721688901E7E7490700
:1006D000E5E7FFF7BDFEC11B3348814223D8E06840
:1006E0000007800F0228F4D123E0FFF7B1FEC11B01
:1006F0002D48814217D8E0680007800F0328F4D105
:1007000017E0FFF7A5FEC11B274881420BD8E06820
:100710000007800F0128F4D10BE0FFF799FEC11B01
:100720002148814201D90320F8BDE0680007800F0D
:10073000F3D11B480168C907C90FB1420DD901683F
:100740004908490031430160006800E003E0C00748
:10075000C00FB04201D00120F8BD2878400706D56F
:10076000E068072109028843E9680843E0602878C7
:10077000000707D5E0680721C90288432969C90035
:100780000843E06000F036F8E168084A0906090FFE
:10079000515CC840064908600020FFF77BFEF8BDA9
:1007A000002002400010024088130000581A000880
:1007B00004000020044805490068C968044A490546
:1007C000490F515CC84070470400002000100240EF
:1007D000711A0008044805490068C968044A890478
:1007E000490F515CC84070470400002000100240CF
:1007F000711A000810B5184AD1680C200840042866
:100800000BD0082810D00C2810D050680004410FDD
:100810000120C003491C884010BD1068C00601D5E6
:100820000E4810BD0E4810BD0E4810BD88020E4B7C
:10083000000F185C0902D368890F491CDB0301D53E
:10084000084A05E01268D20601D5044A00E0044ACD
:100850005043FFF76BFC10BD0010024000093D0043
:100860000024F40000127A00681A0008FEB50500A2
:100870007ED0FE4CE7680C20E668074001200004AB
:1008800006402878C00747D0082F05D00C2F0AD182
:1008900001200004864206D1206880033CD56868A8
:1008A0000028E5D038E0012069680004814203D1C6
:1008B00021680143216011E0052301221B049204F9
:1008C0009942216802D111432160F1E781432160FF
:1008D00021680140009120689043206068680028EA
:1008E0000DD0FFF7B5FD009005E0FFF7B1FD0099D1
:1008F000401A64287ED820688003F6D50CE0FFF704
:10090000A7FD009005E0FFF7A3FD0099401A6428B9
:10091000F0D820688003F6D4287880075CD5E86892
:10092000810604D5226820210A43226088430923D6
:10093000042F0DD00C2F01D1002E09D000283BD060
:100940002168994301432160FFF782FD064627E0B5
:100950002168490701D500288AD061681F22120248
:1009600091432A691202114361602168994300E0B2
:100970008EE101432160FFF73DFFE16809060A0FA0
:10098000BB49895CC840BB4908600020FFF782FD75
:10099000002873D120E0FFF75BFD801B0228A9D857
:1009A00020684007F7D560681F210902884329693C
:1009B0000902084360600FE02068400840002060A2
:1009C000FFF746FD064604E0FFF742FD801B0228C4
:1009D00090D820684007F7D42878C00660D5002F4B
:1009E0000DD0A86900284AD02068FF2101310843B2
:1009F000206000E0C4E0FFF72BFD06462CE02068F5
:100A0000800502D5A8690028A6D06068072149039F
:100A10008843296A084360606068297F0002000AF1
:100A2000090608436060286A410B0120C003491C85
:100A30008840E16809060A0F8D49895CC8408D49E4
:100A400008600020FFF726FD002817D128E0FFF7F7
:100A5000FFFC801B0228A2D820688005F7D56068BB
:100A6000072149038843296A084360606068297F39
:100A70000002000A09060843606011E0E1E0216815
:100A8000FF20013081432160FFF7E2FC064604E0CD
:100A9000FFF7DEFC801B022872D820688005F7D49F
:100AA0002878754E000724D568690028306910D071
:100AB000012108433061FFF7CBFC009005E0FFF710
:100AC000C7FC0099401A02285AD830698007F6D529
:100AD0000FE0400840003061FFF7BAFC009005E0ED
:100AE000FFF7B6FC0099401A022849D83069800700
:100AF000F6D42878400765D500200290A06BC0008E
:100B000006D4A06B012109070843A06301200290CD
:100B10005A480168C90511D4016882151143016062
:100B2000FFF796FC009005E0FFF792FC0099401A51
:100B3000642825D851480068C005F5D5FF20AA686B
:100B40000130824203D131690143316111E0012159
:100B50008902002A07D005231B029A4203D1326979
:100B60000A433261EFE73269824332613069884378
:100B70003061A86800280FD0FFF76AFC009007E0FA
:100B80005EE0FFF765FC0099411A3D48814257D865
:100B900030698005F5D50DE0FFF75AFC009006E0BE
:100BA000FFF756FC0099411A3548814248D8306910
:100BB0008005F5D40298002804D0A16B012000071D
:100BC0008143A163686A002864D00C2F3ED00126BF
:100BD00036060228206805D0B0432060FFF738FCB5
:100BE00005462FE0B0432060FFF732FC074604E0E3
:100BF000FFF72EFCC01B022822D820688001F7D402
:100C0000E96AA86AE2680843296BFD231B049A433A
:100C100011430843E060206830432060FFF718FC70
:100C2000054604E0FFF714FC401B022808D82068A2
:100C30008001F7D52EE0FFF70BFC401B022801D9FD
:100C40000320FEBD20688001F5D423E00128F8D000
:100C5000E06801210904AA6A0140914218D10F21DC
:100C60008904EA6A0140914212D10BE0001002406F
:100C7000581A000804000020401002400070004094
:100C800088130000032189050840296B884201D0A0
:100C90000120FEBD0020FEBD094910B5401E88425E
:100CA00001D9012010BD074C60610321081F00F02D
:100CB0007DFA0020A06107202061002010BD000007
:100CC000FFFFFF0000E000E0F0B502462032137E97
:100CD000012B15D0012717760223537605686C681F
:100CE000AB687026B4430E68496826438024A3434A
:100CF00019436E6000688160577600201076F0BD61
:100D00000220F0BD10B586B0044614216846FFF7F6
:100D10005AFA012120688907884214D10B48C16A18
:100D200001221143C162C06A6946104005909002D9
:100D30000090022001900020029003900520049072
:100D40000007FFF7CBFA06B010BD0000001002400C
:100D5000F8B5064604462036307E0D4601280DD0F3
:100D600001203076022070760427002A08D0042A59
:100D700016D0082A2AD00C2A4DD137E00220F8BD1F
:100D8000206800F016FB2068816908221143816108
:100D900020688169B943816120688169EA6812E04D
:100DA000206800F01EFB206882690121C9020A4305
:100DB00082612068816901229202914381612068E9
:100DC0008169EA6812021143816124E0206800F021
:100DD00021FB2068C26908210A43C2612068C169F9
:100DE000B943C1612068C169EA6812E0206800F077
:100DF0002CFB2068C1690122D2021143C161206825
:100E0000C269012189028A43C2612068C169EA6816
:100E100012021143C1610120707600203076F8BDC6
:100E200070B5040005D025462035687E002802D024
:100E300006E0012070BD00202876204600F00AF868
:100E400002206876211D206800F082FA0120687671
:100E5000002070BD00B50D4887B0826B01210A43A8
:100E60008263C26A0A43C262C06A02910840059066
:100E7000022000900190032104900391052069460F
:100E80000007FFF72BFA07B000BD0000001002407A
:100E900010B504460068012200F07EFA20688168DF
:100EA0004907490F062903D0016801221143016057
:100EB000002010BD10B5040003D0606F002802D0E0
:100EC00007E0012010BD002170200155204600F0F0
:100ED00027F82420606720680168490849000160FC
:100EE000204600F067FB0128ECD0606A002802D0A1
:100EF000204600F0C9FA206841680922D2029143D5
:100F00004160206881682A229143816020680168DD
:100F1000012211430160204600F01CFB10BD0000BF
:100F200010B586B0044614216846FFF74CF9104905
:100F3000206888421AD10F48816B01225204114364
:100F40008163C26A01210A43C262C06A02910840F9
:100F50000590480200901220019003200390042085
:100F60000490052069460007FFF7B8F906B010BDE8
:100F70000044004000100240FFB50446406F83B0BB
:100F800017460D4620285CD1002D0AD0002F08D02E
:100F9000A168C001814207D12069002804D1E80777
:100FA00002D0012007B0F0BD204660300290007CE6
:100FB000012846D00298012101740020E067212019
:100FC0006067FFF745FA2646403601903782778200
:100FD0000120A1680003814202D12069002802D0CB
:100FE0002F46002511E000270FE000228021204637
:100FF00000F0E2FB002815D1002F15D021683878C9
:1010000088627F1C708A401E7082708A019B002853
:1010100006980090E9D100224021204600F0CCFB48
:10102000002808D00320BDE728882168C005C00D2E
:101030008862AD1CE6E720206067029900200874F2
:10104000B0E70220AEE7FEE700B587B0142168469E
:10105000FFF7B9F80D48C26A01210A43C262C06AAB
:101060000091084005900A48019002200290052056
:1010700069460007FFF732F9002202210520FFF739
:1010800037FA0520FFF72AFA07B000BD001002402A
:1010900000001110024610B505200007130000F0F3
:1010A000CDFB05040D141B220C00002901D00122E8
:1010B00000E000220421FFF7C4F910BD002901D08F
:1010C000012200E000222021F5E7002901D00122C1
:1010D00000E000224021EEE7002901D0012200E0DB
:1010E00000228021E7E70448002901D0012200E026
:1010F00000220221DFE7000000040050F0B587B0B5
:1011000014216846FFF75FF81748C16A0125294393
:10111000C162C16A29400591C16A02263143C16298
:10112000C06A052730403F0705900022E421384679
:10113000FFF787F9002202210C48FFF782F9E4202B
:101140000024009002946946019503943846FFF705
:10115000C5F8029469460548009601950394FFF787
:10116000BDF807B0F0BD00000010024000040050C0
:1011700010B50C480A4901604B21C90141600021AA
:101180008160C16001618161C1610C2201624261C3
:101190004162FFF78FFE002801D0FFF758F810BD1D
:1011A000004400400C000020704700008307FF222D
:1011B000DB0E9A408907090E994000280BDA0007D8
:1011C000000F0838830808489B001818C369934328
:1011D0000B43C3617047830804489B001B181868C1
:1011E000904308431860704700ED00E000E400E021
:1011F0007047704710B5FFF731F910BD10B598B0C2
:1012000034216846FEF7DFFF14210DA8FEF7DBFF4F
:10121000182112A8FEF7D7FF174801680322D2024F
:101220009143C214891801600A2000901020049094
:101230000220012109900024400505910C900391A2
:101240000A940B946846FFF711FB0F200D900320C2
:101250000E900F941094012111940DA8FFF7F4F94A
:1012600022201290012040041390149412A8FFF73A
:1012700043F918B010BD000000700040104801682C
:10128000821511430160C1680E4A1140C1600168B6
:101290000D4A114001608168490849008160016878
:1012A0000122920491430160C168FD22120491431E
:1012B000C160002101610549C003886070470000DA
:1012C000001002400C40FF88F6FFF6FE00ED00E043
:1012D00010B586B00024059401211B4804940094A5
:1012E000019402948907039401601721846041608E
:1012F000046116494461C160FFF792FD002801D0E6
:10130000FEF7A5FF049404A90F480594FFF7DCFC41
:10131000002801D0FEF79BFF60200090019402940A
:101320000422694603940848FFF712FD002801D003
:10133000FEF78DFF04210448FFF7AAFD0248FFF7DE
:10134000E1FC06B010BD00008C000020E7030000A7
:1013500030B5026801239B070E4C984201D0A04291
:1013600003D17025AA434D682A43984201D0A04278
:1013700004D103231B029A43CB681A4380239A4368
:101380000B691A4302608A68C2620968816201219E
:10139000416130BD0008014010B5CB06DB0E0121D4
:1013A000046A99408C430462016A9A4011430162C5
:1013B00010BD30B5026A520852000262026A4568E6
:1013C00083697024A3439C080B68A4002343022470
:1013D000A2438C6845601443836149684163046299
:1013E00030BD30B5026A10239A430262036A456831
:1013F000826973242402A2430C682402144320222D
:1014000093438A68456012011A4384614968816385
:10141000026230BD30B5026AFF2301339A43026293
:10142000026A4568C3697024A3439C080B68A40042
:10143000234301246402A2438C68456024021443C0
:10144000C3614968C163046230BD30B5026A0123DB
:101450001B039A430262036A4568C269732424022B
:10146000A2430C68240214430122520393438A6866
:10147000456012031A43C46149680164026230BDC9
:10148000012189078863704710B5818CC90707D08F
:1014900001684A6801235B049A43836A1A434A60DD
:1014A000818C890707D501684A6801231B049A4388
:1014B000C36A1A434A60818C490707D501684A68A4
:1014C00001239B049A43036B1A434A60818C0907EA
:1014D00007D501684A680123DB039A43436B1A432B
:1014E0004A60818CC90607D50268916801231B03F5
:1014F0009943836B19439160818C890607D50168F4
:101500008A6801235B039A43C36B1A438A60818C08
:10151000490612D503685A6801210905046C8A43FB
:1015200022435A60026C8A4207D102685168032341
:101530005B059943436C19435160818C090607D5BB
:1015400001684A680123DB04806C9A4302434A60C5
:1015500010BD0000F8B500260446C667FEF778FF08
:10156000054620680068124F000709D501212B4667
:10157000002249052046009700F01EF900280DD1F1
:101580002068006840070BD501212B460022890501
:101590002046009700F010F9002801D00320F8BD84
:1015A00020206067A067603426740020F8BD00002A
:1015B000FFFFFF01F8B504462669A268E7693243D8
:1015C0006669102000253E432368324370491E6837
:1015D000704F3E4016431E60226853680326360350
:1015E000B343E668334353602368A2698B4201D05A
:1015F000266A32439E680B273F02BE4316439E6015
:10160000654E2368654AB3420AD1D2680C2632403F
:1016100026D0042A28D0082A24D00C2A10D10EE083
:101620008B420DD1D66803229202164018D00122B7
:101630009202B61A18D0B61A14D0964200D10820D9
:10164000564A0126403A564FF6038B4236D10028BF
:101650000CD002280DD0042812D008281FD11CE07D
:101660000020EDE70220EBE70420E9E7FFF7A2F80E
:1016700008E01068C00601D5384605E0494803E097
:10168000FFF7B8F8002873D0626851005118814202
:1016900005D81103814202D303E03046F4E7012567
:1016A00066E0010E06025008002330185941FEF78B
:1016B00053FD03210902411A3B4A55E0E169B14259
:1016C00032D1030000F0BAF809070A0D0625060614
:1016D000062B0600E3E7FFF76DF81CE0FFF77AF84A
:1016E00019E010686168C00602D548082F4A01E079
:1016F0002F4A48088018FEF719FD80B201462D4A8E
:1017000010399142CBD8511C01400007400F0843CB
:101710002CE0FFF76FF8616840004A08EAE761686B
:10172000012248081204E5E7030000F087F80907E2
:101730000A0D06260606062C0600B0E7FFF73AF863
:101740001DE0FFF747F81AE010686168C00602D58F
:101750004808C01902E013484A081018FEF7E6FCD2
:1017600080B20146134A1039914298D82168C86066
:101770000020206660662846F8BDFFF73BF86168E8
:101780004A088018EAE7616848088019E6E700001F
:1017900000480040F369FFEF004400404010024061
:1017A00000093D000024F400FFFC0F0000127A0045
:1017B0000048E801EFFF0000FFB581B017460E4674
:1017C00004460A9D09E0681C07D0FEF741FE049913
:1017D000401AA8420CD8002D0AD02068C1693046B2
:1017E000884318D00020B842EDD0002005B0F0BDED
:1017F00020680168FF22A13291430160206881685E
:1018000049084900816020206067A067002060349B
:1018100020740320EAE70120E5E700000FB410B5CB
:1018200003A9044B044A029800F024F810BC08BC39
:1018300004B01847C51900080800002030B47446E9
:10184000641E2578641CAB4200D21D46635D5B00BC
:10185000E31830BC184702E008C8121F08C1002A6C
:10186000FAD170477047002001E001C1121F002A21
:10187000FBD17047FFB58DB00446002506E0252852
:101880000AD0109A0F999047641C6D1C207800288C
:10189000F5D1284611B0F0BD00270121484A009734
:1018A00000E00743641C23780846203B9840104220
:1018B000F7D120782E2817D1042007436078641CC4
:1018C0002A280CD10E98641C02C800910E900BE0DF
:1018D00000990A22514330394018641C0090207846
:1018E000014630390929F3D920780028D1D064285D
:1018F00008D0692806D075281ED0109A0F999047F5
:101900006D1C5BE00A200E99019001C90E91002820
:1019100002DA40422D2102E0390504D52B216A4626
:101920001172012103E0F90704D02021F7E70BAE83
:101930000B910DE00021FAE70A200E99019001C9F0
:101940000E91F7E70199FEF7F1FB3031761E317009
:101950000028F7D103A8801B20300190780701D51B
:10196000009801E0012000900199884201DD401AB1
:1019700000E000200027009006E002A8109AC05D59
:101980000F9990476D1C7F1C0B988742F5DB04E094
:10199000109A30200F9990476D1C0099481E0090B6
:1019A0000029F5DC05E03078109A761C0F999047F5
:1019B0006D1C0199481E01900029F4DC641C65E748
:1019C0000928010038B50446684604707D231B01D0
:1019D000012269460248FFF7CFFA204638BD0000D1
:1019E0000C000020FEF742FDFFF708FCFFF786FB26
:1019F000FFF7BEFB4B20C8218001FFF769FCFFF712
:101A000023FBFF26F53600243046FFF739FD10A0F2
:101A1000FFF704FF3046FEF71BFC641CE00F0019C3
:101A200040084000251AE9B20020FFF733FBE9B275
:101A30000120FFF72FFBE9B20220FFF72BFBE9B2F1
:101A40000320FFF727FBE9B20420FFF723FBDEE7C3
:101A500068656C6C6F0D0A0000000000000000005B
:101A60000102030406070809030406080C101820E5
:101A70003000000000010203040000009C1A00086E
:101A8000000000200C00000056180008A81A0008EA
:101A90000C000020BC0400006618000800000000D4
:081AA00000002000000000001E
:04000005080000C12E
:00000001FF
