:020000040800F2
:1000000030050020D5000008851500084D140008B3
:1000100000000000000000000000000000000000E0
:10002000000000000000000000000000CF150008E4
:100030000000000000000000CD150008D1150008E8
:100040000501000800000000050100080501000886
:1000500005010008750300080501000805010008F6
:100060000000000005010008050100080501000866
:100070000501000805010008000000000501000856
:100080000000000000000000000000000000000070
:100090000501000800000000000000000501000844
:1000A0000000000005010008000000000000000042
:1000B0000501000805010008000000000000000024
:1000C0000348854600F0ACF8004800479B1D000837
:1000D000300500200C4880F308880C480168090EA0
:1000E0000B4A914205D10B480B4901600B480C4962
:1000F00001600C4880470C480047FEE7FEE7FEE73A
:10010000FEE7FEE7FEE700003005002004000000E7
:100110001F000000341002400100000000000140F8
:100120000000000059160008C100000830B50B4659
:10013000014600202022012409E00D46D5409D42C1
:1001400005D31D469540491B254695404019154647
:10015000521E002DF1DC30BDF0B51FB40646002064
:1001600082B005464024019100901BE0019922468F
:100170000F46304600F042F8049A059B801A9941D8
:1001800010D310461946224600F028F8361A8F413F
:100190000197224601200021009F00F01FF8381827
:1001A0004D4100902046641E0028DFDC019B009832
:1001B0002946324607B0F0BDD2B201E00270401CC1
:1001C000491EFBD270470022F6E710B513460A46D7
:1001D00004461946FFF7F0FF204610BD10B5202A4F
:1001E00004DB0146203A9140002010BD91402023BD
:1001F0009C1A0346E3401943904010BD10B5202AD5
:1002000004DB0846203AD040002110BD0B46D34005
:10021000D0402024A21A91400843194610BD000086
:10022000064C0125064E05E0E36807CC2B430C3C49
:1002300098471034B442F7D3FFF746FF301F000849
:10024000501F0008F8B50446006881688907890FC7
:10025000012902D10168C90729D18168154A1026F0
:1002600011400125002915D1816829438160134877
:1002700011490068FFF75AFF00E0401E0090002877
:10028000FBD100F04FFB07460CE000F04BFBC01B1E
:100290000A2807D9606D30436065A06D2843A065CA
:1002A0000120F8BD20680068C043C007EDD10020E0
:1002B000F8BD00001700008040420F00040000203D
:1002C0001CB500211E4800911C4A01910260016486
:1002D000012241648164C263826393078160436049
:1002E00002610346C16020331A70FF245970C23482
:1002F0004462816219730163042341634361826133
:10030000C16100F07BF8002801D000F038F80D48FA
:100310000090400201906946094800F031F8002839
:1003200001D000F02CF8084800906946044800F01D
:1003300027F8002801D000F022F81CBD002401405D
:10034000980000200800000C1000001010B50749AC
:100350000868401C0860C107054801D0012200E080
:100360000022022100F0D7FA10BD00000800002092
:100370000004005010B5012000F00EFA10BD7047C7
:10038000F0B502464032137C012B0ED001231374CA
:1003900003689C6865070024002D08DA416D20235E
:1003A0001943416514740120F0BD0220F0BD0F4FC8
:1003B0004E68BD05BE420E489E6A0F6809D07F0395
:1003C0007F0B3E439E62096889030CD581682943EF
:1003D00008E07F037F0BBE439E620968890302D554
:1003E0008168A943816014740020F0BD01100000F1
:1003F000002701400068006C7047000070B50400E1
:1004000006D0606D264600254036002802D006E062
:10041000012070BDA5653574204600F0D3F8606DED
:10042000C00603D421688868400705D5606D102197
:10043000084360653574EBE7606DFF22013290433D
:1004400002221043606588688207920F5B48012A88
:1004500002D10A68D2072BD1032362689B079A4214
:1004600005D05B429A4202D05B009A4209D10A69E8
:10047000920092080A6121680A6963681A430A6156
:100480000CE00A69920092080A6181680F229204C6
:100490009143816081686268114381602168CA6804
:1004A00018239A43CA602168CA68A3681A43CA60BD
:1004B000816801225206914381608168A28E5206B2
:1004C0001143816020688168C90004D481680122D9
:1004D0001207114381602068C168394A1140C16028
:1004E0002069E168022825D0002001432046203001
:1004F0000278037B52035B001A431143226B1143C2
:10050000A26992031143E269D20311432268D368BE
:100510001943D160616A0A46FF3AC23A05D0A26A1D
:1005200011432268D3681943D16042780121012A1E
:1005300002D00BE00420D8E70078002823D0606DBB
:10054000202210436065A06D0843A065E06B012880
:1005500020681FD00169C90703D001694908490013
:10056000016120684169C908C90041612068416989
:10057000A26B11434161A565606D80088000401C3D
:100580006065002070BD2068C26801231B041A4307
:10059000C260DBE70269FF239B009A430261206887
:1005A0000269236CA66C1A43636C33431A430261DD
:1005B000206802690A430261D3E700000027014076
:1005C0001902FEFF10B586B0044614216846FFF7F5
:1005D000FAFD0E492068884216D10D48416B42153C
:1005E00011434163C16A01221143C162C06A694675
:1005F00010400590182000900320019000200290E8
:100600000520000700F0D4F806B010BD002401401A
:1006100000100240F8B504464069254640350E46B4
:1006200008280BD02068C068C00709D0606D202161
:1006300008436065002028740120F8BD082700E009
:100640000C2700F06FF9009011E0701C0FD0002E05
:1006500005D000F067F90099401AB04207D9606DE3
:10066000042108436065002028740320F8BD206839
:1006700000683842E9D0606D012149020843606595
:100680002068C16809058A0F0C21002A1BD120228D
:10069000125D002A17D10268120714D58268530729
:1006A0000122002B08DB43688B434360606D13021B
:1006B00098431043606506E0606D20231843606531
:1006C000A06D1043A065A069002801D120680160D9
:1006D0000020F8BD70B504462168002089684907EC
:1006E00021D425464035297C01291CD001212974BB
:1006F000E169012904D02046FFF7A4FD002811D1AB
:10070000616D0A4A1140FF220132114361650021E7
:10071000A165297422681C21116021688A6804235C
:100720001A438A6070BD022070BD0000FEF1FFFF19
:1007300070B5044600F0F6F80546601C00D0641C55
:1007400000F0F0F8401BA042FAD370BD70B501284C
:100750000BD10520FFF7ECFF05252D070024012113
:10076000284600F0D3F8012806D070BD0520641C8F
:10077000FFF7DEFFC82C05DA0121284600F0C6F895
:100780000128F3D0FF209130844202DA01F062FBAD
:1007900070BD01F0A9FB70BD10B504494A69024261
:1007A00002D04861FFF7D2FF10BD000000040140F5
:1007B000F8B50023012498E027469F403A4070D0C6
:1007C0004D68022D01D0122D14D1DD08AD002D1879
:1007D00000952D6A5E07AC46F50E0F26AE46AE407C
:1007E0006546B543AC460E697546AE4065462E4338
:1007F000009D2E624D68012D05D0022D03D0112DD4
:1008000001D0122D16D185680326AC465D00AE4698
:10081000AE406546B543AC46CE687546AE406546CB
:100820002E43866046680D79BE43ED06ED0F9D4070
:100830003543456006685F000325BD40AE46AE43C4
:100840000D79B446AE07B60FBE4065462E4306602E
:10085000C6687546AE438D68BD403543C5604D687A
:10086000ED0041D5244D6E6B26436E639E08234DEB
:10087000B6007519AC46AD689E07360F0F27B74016
:10088000BD4305273F07B84201D100270BE01C4FAD
:10089000B84201D1012706E01A4FB84202D102271F
:1008A00001E021E00627B7402F436546AF60164DB3
:1008B0002E684F689643FF0300D516432E606E687E
:1008C0004F689643BF0300D516436E60AE684F680D
:1008D0009643FF0200D51643AE60EE684F6896431C
:1008E000BF0200D51643EE605B1C0A681546DD406A
:1008F00000D061E7F8BD0000001002400000014098
:100900000004005000080050000401400069084045
:1009100000D001207047002A01D0816170478162B8
:100920007047000001480068704700000000002088
:1009300002480168491C0160704700000000002067
:1009400010B5084800240168402211430160204688
:1009500000F00AF8002801D0012401E000F01CF8A2
:10096000204610BD0020024070B5054609487D2193
:100970000024C9000068FFF7D9FB00F0F7FB00284E
:1009800001D0012404E000222946501E00F01AF88C
:10099000204670BD040000200448416B0122114331
:1009A0004163816B02041143816370470010024070
:1009B000C106C90E01208840014908607047000047
:1009C00000E100E010B500F0DFFD10BDF8B5044611
:1009D00000784F4D800672D54D4E0027403EB06BDB
:1009E000C00004D4B06BA9050843B063012749488F
:1009F0000168C90511D40168821511430160FFF730
:100A000091FF009005E0FFF78DFF0099401A6428E0
:100A100037D840480068C005F5D53268032109057C
:100A200060680A400140914208D08103890F032980
:100A300004D13168890301D50120F8BD2A69032159
:100A400009040A4022D0084090421FD02078800636
:100A50001CD528692A6988430121C9040A432A61EF
:100A60002A698A432A612861C0050FD5FFF75AFF1A
:100A7000009008E0FFF756FF0099411A264881428E
:100A800001D90320F8BD28698005F3D56168880382
:100A9000800F032805D132680005824301400A43D4
:100AA00032602869032261681204114008432861FA
:100AB000002F04D0B16B012000078143B16320787F
:100AC000800705D5E8680C218843A1680843E860E1
:100AD0002078400706D5E868032189028843E16849
:100AE0000843E8602078000706D5E8680321090379
:100AF000884321690843E8602078000606D5E86845
:100B000003218904884361690843E8600020F8BD37
:100B1000401002400070004088130000F8B50E46F7
:100B200005007DD053480068C007C00FB0420AD20C
:100B30005048016849084900314301600068C00716
:100B4000C00FB04271D128784B4C800705D5E068C2
:100B5000F0218843A9680843E0602878C00752D094
:100B60006868022817D0032818D02168012818D0F7
:100B70008905002959DAE168890889000143E160A3
:100B8000FFF7D0FE69680746022912D003291CD05E
:100B9000012926D033E021688903EAE72168890129
:100BA000E7E74907E5E7FFF7BDFEC11B3348814290
:100BB00023D8E0680007800F0228F4D123E0FFF774
:100BC000B1FEC11B2D48814217D8E0680007800F95
:100BD0000328F4D117E0FFF7A5FEC11B2748814287
:100BE0000BD8E0680007800F0128F4D10BE0FFF775
:100BF00099FEC11B2148814201D90320F8BDE0685C
:100C00000007800FF3D11B480168C907C90FB14223
:100C10000DD901684908490031430160006800E0CE
:100C200003E0C007C00FB04201D00120F8BD287812
:100C3000400706D5E068072109028843E9680843B0
:100C4000E0602878000707D5E0680721C9028843DB
:100C50002969C9000843E06000F036F8E168084AF5
:100C60000906090F515CC840064908600020FFF7DB
:100C70007BFEF8BD002002400010024088130000F7
:100C80000C1F000804000020044805490068C968DA
:100C9000044A4905490F515CC840704704000020D0
:100CA00000100240251F0008044805490068C96873
:100CB000044A8904490F515CC84070470400002071
:100CC00000100240251F000810B5184AD1680C20FA
:100CD000084004280BD0082810D00C2810D05068E9
:100CE0000004410F0120C003491C884010BD10685A
:100CF000C00601D50E4810BD0E4810BD0E4810BDEF
:100D000088020E4B000F185C0902D368890F491C3A
:100D1000DB0301D5084A05E01268D20601D5044A72
:100D200000E0044A5043FFF701FA10BD00100240F2
:100D300000093D000024F40000127A001C1F000886
:100D4000FEB505007ED0FE4CE7680C20E668074043
:100D50000120000406402878C00747D0082F05D09E
:100D60000C2F0AD101200004864206D1206880039E
:100D70003CD568680028E5D038E0012069680004A7
:100D8000814203D121680143216011E00523012242
:100D90001B0492049942216802D111432160F1E7BA
:100DA00081432160216801400091206890432060C8
:100DB000686800280DD0FFF7B5FD009005E0FFF74B
:100DC000B1FD0099401A64287ED820688003F6D5CA
:100DD0000CE0FFF7A7FD009005E0FFF7A3FD0099E9
:100DE000401A6428F0D820688003F6D42878800759
:100DF0005CD5E868810604D5226820210A43226078
:100E000088430923042F0DD00C2F01D1002E09D0C7
:100E100000283BD02168994301432160FFF782FD00
:100E2000064627E02168490701D500288AD0616875
:100E30001F22120291432A69120211436160216844
:100E4000994300E08EE101432160FFF73DFFE16837
:100E500009060A0FBB49895CC840BB4908600020ED
:100E6000FFF782FD002873D120E0FFF75BFD801BB8
:100E70000228A9D820684007F7D560681F21090219
:100E8000884329690902084360600FE02068400830
:100E900040002060FFF746FD064604E0FFF742FDF4
:100EA000801B022890D820684007F7D42878C00615
:100EB00060D5002F0DD0A86900284AD02068FF21F6
:100EC00001310843206000E0C4E0FFF72BFD064637
:100ED0002CE02068800502D5A8690028A6D06068AB
:100EE000072149038843296A084360606068297FB5
:100EF0000002000A090608436060286A410B0120CD
:100F0000C003491C8840E16809060A0F8D49895CC5
:100F1000C8408D4908600020FFF726FD002817D142
:100F200028E0FFF7FFFC801B0228A2D8206880057C
:100F3000F7D56068072149038843296A0843606040
:100F40006068297F0002000A09060843606011E01A
:100F5000E1E02168FF20013081432160FFF7E2FCDE
:100F6000064604E0FFF7DEFC801B022872D82068EA
:100F70008005F7D42878754E000724D568690028C5
:100F8000306910D0012108433061FFF7CBFC00909D
:100F900005E0FFF7C7FC0099401A02285AD83069CB
:100FA0008007F6D50FE0400840003061FFF7BAFC3B
:100FB000009005E0FFF7B6FC0099401A022849D8D6
:100FC00030698007F6D42878400765D50020029064
:100FD000A06BC00006D4A06B012109070843A063E1
:100FE000012002905A480168C90511D40168821590
:100FF00011430160FFF796FC009005E0FFF792FCBB
:101000000099401A642825D851480068C005F5D5D4
:10101000FF20AA680130824203D131690143316166
:1010200011E001218902002A07D005231B029A4200
:1010300003D132690A433261EFE732698243326198
:10104000306988433061A86800280FD0FFF76AFC38
:10105000009007E05EE0FFF765FC0099411A3D480B
:10106000814257D830698005F5D50DE0FFF75AFC6D
:10107000009006E0FFF756FC0099411A354881427E
:1010800048D830698005F5D40298002804D0A16BB7
:10109000012000078143A163686A002864D00C2FF7
:1010A0003ED0012636060228206805D0B0432060D5
:1010B000FFF738FC05462FE0B0432060FFF732FC15
:1010C000074604E0FFF72EFCC01B022822D8206848
:1010D0008001F7D4E96AA86AE2680843296BFD2316
:1010E0001B049A4311430843E060206830432060AA
:1010F000FFF718FC054604E0FFF714FC401B02282C
:1011000008D820688001F7D52EE0FFF70BFC401BC4
:10111000022801D90320FEBD20688001F5D423E018
:101120000128F8D0E06801210904AA6A014091422F
:1011300018D10F218904EA6A0140914212D10BE0D3
:10114000001002400C1F0008040000204010024064
:101150000070004088130000032189050840296BB6
:10116000884201D00120FEBD0020FEBD094910B516
:10117000401E884201D9012010BD074C6061032147
:10118000081F00F001FA0020A06107202061002064
:1011900010BD0000FFFFFF0000E000E0F0B50246D8
:1011A0002032137E012B15D00127177602235376A8
:1011B00005686C68AB687026B4430E6849682643BE
:1011C0008024A34319436E60006881605776002035
:1011D0001076F0BD0220F0BD10B586B00446142193
:1011E0006846FEF7F0FF012120688907884214D184
:1011F0000B48C16A01221143C162C06A69461040AE
:10120000059090020090022001900020029003902F
:10121000052004900007FFF7CBFA06B010BD0000D0
:1012200000100240F8B5064604462036307E0D46D2
:1012300001280DD001203076022070760427002A84
:1012400008D0042A16D0082A2AD00C2A4DD137E01B
:101250000220F8BD206800F09AFA2068816908220F
:101260001143816120688169B94381612068816986
:10127000EA6812E0206800F0A2FA20688269012181
:10128000C9020A4382612068816901229202914366
:10129000816120688169EA6812021143816124E05A
:1012A000206800F0A5FA2068C26908210A43C261DB
:1012B0002068C169B943C1612068C169EA6812E068
:1012C000206800F0B0FA2068C1690122D2021143FF
:1012D000C1612068C269012189028A43C261206814
:1012E000C169EA6812021143C161012070760020D1
:1012F0003076F8BD70B5040005D025462035687EEF
:10130000002802D006E0012070BD0020287620468B
:1013100000F00AF802206876211D206800F006FA25
:1013200001206876002070BD00B50D4887B0826B43
:1013300001210A438263C26A0A43C262C06A0291FF
:101340000840059002200090019003210490039131
:10135000052069460007FFF72BFA07B000BD000023
:101360000010024010B504460068012200F002FAA5
:10137000206881684907490F062903D001680122C6
:1013800011430160002010BD10B5040003D0606F50
:10139000002802D007E0012010BD00217020015577
:1013A000204600F027F8242060672068016849087B
:1013B00049000160204600F0F3FA0128ECD0606A91
:1013C000002802D0204600F055FA20684168092222
:1013D000D20291434160206881682A229143816052
:1013E00020680168012211430160204600F0A8FA3C
:1013F00010BD000010B586B0044614216846FEF703
:10140000E2FE1049206888421AD10F48816B012200
:10141000520411438163C26A01210A43C262C06A55
:10142000029108400590480200901220019003208C
:10143000039004200490052069460007FFF7B8F9DF
:1014400006B010BD0044004000100240FEE700005E
:1014500000B587B014216846FEF7B5FE0948C26A98
:1014600004210A43C262C06A084005900803009044
:10147000002001900220029069460348FFF798F986
:1014800007B000BD001002400008005000B587B052
:1014900014216846FEF797FE0D48C26A01210A43EF
:1014A000C262C06A0091084005900A48019002207B
:1014B0000290052069460007FFF77AF90022022111
:1014C0000520FFF77FFA0520FFF772FA07B000BD8D
:1014D0000010024000001110F0B587B014216846DA
:1014E000FEF771FE1748C16A01252943C162C16A2E
:1014F00029400591C16A02263143C162C06A0527AD
:1015000030403F0705900022E4213846FFF703FAF8
:10151000002202210C48FFF7FEF9E420002400908D
:1015200002946946019503943846FFF741F9029405
:1015300069460548009601950394FFF739F907B00D
:10154000F0BD0000001002400004005010B50C482F
:101550000A4901604B21C901416000218160C160DD
:1015600001618161C1610C22016242614162FFF748
:101570000BFF002801D0FEF702FF10BD0044004021
:1015800018000020704700008307FF22DB0E9A40FE
:101590008907090E994000280BDA0007000F083868
:1015A000830808489B001818C36993430B43C36121
:1015B0007047830804489B001B1818689043084331
:1015C0001860704700ED00E000E400E070477047ED
:1015D00010B5FFF7ADF910BD10B598B034216846CD
:1015E000FEF7F1FD14210DA8FEF7EDFD182112A85C
:1015F000FEF7E9FD174801680322D2029143C214A5
:10160000891801600A200090102004900220012116
:1016100009900024400505910C9003910A940B94C5
:101620006846FFF78DFB0F200D9003200E900F945E
:101630001094012111940DA8FFF770FA2220129046
:10164000012040041390149412A8FFF7BFF918B0BA
:1016500010BD000000700040104801688215114361
:101660000160C1680E4A1140C16001680D4A114015
:101670000160816849084900816001680122920483
:1016800091430160C168FD2212049143C1600021B1
:1016900001610549C00388607047000000100240E6
:1016A0000C40FF88F6FFF6FE00ED00E010B586B0B6
:1016B0000024059401211B48049400940194029491
:1016C0008907039401601721846041600461164911
:1016D0004461C160FFF70EFE002801D0FEF74FFE07
:1016E000049404A90F480594FFF758FD002801D081
:1016F000FEF745FE602000900194029404226946A2
:1017000003940848FFF78EFD002801D0FEF737FE4E
:1017100004210448FFF726FE0248FFF75DFD06B0EE
:1017200010BD0000F4000020E703000030B502689F
:1017300001239B070E4C984201D0A04203D1702593
:10174000AA434D682A43984201D0A04204D1032302
:101750001B029A43CB681A4380239A430B691A43AE
:1017600002608A68C262096881620121416130BDFC
:101770000008014010B5CB06DB0E0121046A994038
:101780008C430462016A9A401143016210BD30B576
:10179000026A520852000262026A45688369702434
:1017A000A3439C080B68A40023430224A2438C6833
:1017B00045601443836149684163046230BD30B5BC
:1017C000026A10239A430262036A4568826973249D
:1017D0002402A2430C6824021443202293438A6803
:1017E000456012011A43846149688163026230BD19
:1017F00030B5026AFF2301339A430262026A4568E8
:10180000C3697024A3439C080B68A40023430124EC
:101810006402A2438C68456024021443C361496892
:10182000C163046230BD30B5026A01231B039A43D1
:101830000262036A4568C26973242402A2430C68E9
:10184000240214430122520393438A684560120321
:101850001A43C46149680164026230BD01218907ED
:101860008863704702488168491C816070470000A6
:101870000C00002010B5818CC90707D001684A68A8
:1018800001235B049A43836A1A434A60818C890767
:1018900007D501684A6801231B049A43C36A1A43A7
:1018A0004A60818C490707D501684A6801239B0477
:1018B0009A43036B1A434A60818C090707D5016874
:1018C0004A680123DB039A43436B1A434A60818CC5
:1018D000C90607D50268916801231B039943836BEE
:1018E00019439160818C890607D501688A680123B4
:1018F0005B039A43C36B1A438A60818C490612D5F5
:1019000003685A6801210905046C8A4322435A601E
:10191000026C8A4207D10268516803235B05994330
:10192000436C19435160818C090607D501684A68E8
:101930000123DB04806C9A4302434A6010BD00001F
:10194000F8B500260446C667FEF7ECFF054620689A
:101950000068124F000709D501212B4600224905D6
:101960002046009700F01EF900280DD1206800687D
:1019700040070BD501212B46002289052046009700
:1019800000F010F9002801D00320F8BD2020606786
:10199000A067603426740020F8BD0000FFFFFF013F
:1019A000F8B504462669A268E769324366691020E3
:1019B00000253E432368324370491E68704F3E4005
:1019C00016431E602268536803263603B343E66855
:1019D000334353602368A2698B4201D0266A3243A5
:1019E0009E680B273F02BE4316439E60654E2368E8
:1019F000654AB3420AD1D2680C26324026D0042A66
:101A000028D0082A24D00C2A10D10EE08B420DD108
:101A1000D66803229202164018D001229202B61A0A
:101A200018D0B61A14D0964200D10820564A012682
:101A3000403A564FF6038B4236D100280CD002288C
:101A40000DD0042812D008281FD11CE00020EDE79B
:101A50000220EBE70420E9E7FFF716F908E0106839
:101A6000C00601D5384605E0494803E0FFF72CF9E8
:101A7000002873D0626851005118814205D81103C3
:101A8000814202D303E03046F4E7012566E0010E0F
:101A900006025008002330185941FEF75DFB032170
:101AA0000902411A3B4A55E0E169B14232D10300D3
:101AB00000F0A9F809070A0D06250606062B060000
:101AC000E3E7FFF7E1F81CE0FFF7EEF819E0106834
:101AD0006168C00602D548082F4A01E02F4A48082D
:101AE0008018FEF723FB80B201462D4A103991423F
:101AF000CBD8511C01400007400F08432CE0FFF7F2
:101B0000E3F8616840004A08EAE761680122480892
:101B10001204E5E7030000F076F809070A0D06262F
:101B20000606062C0600B0E7FFF7AEF81DE0FFF74B
:101B3000BBF81AE010686168C00602D54808C019F1
:101B400002E013484A081018FEF7F0FA80B2014686
:101B5000134A1039914298D82168C8600020206645
:101B600060662846F8BDFFF7AFF861684A0880183C
:101B7000EAE7616848088019E6E70000004800408D
:101B8000F369FFEF004400404010024000093D00AF
:101B90000024F400FFFC0F0000127A000048E80166
:101BA000EFFF0000FFB581B017460E4604460A9DC0
:101BB00009E0681C07D0FEF7B5FE0499401AA84258
:101BC0000CD8002D0AD02068C1693046884318D04F
:101BD0000020B842EDD0002005B0F0BD20680168BB
:101BE000FF22A132914301602068816849084900C1
:101BF000816020206067A06700206034207403208B
:101C0000EAE70120E5E730B47446641E2578641CD9
:101C1000AB4200D21D46635D5B00E31830BC184741
:101C200002E008C8121F08C1002AFAD170477047A5
:101C3000002001E001C1121F002AFBD17047000003
:101C400010B50E484068C117890F09188908890026
:101C5000401A0AD001280BD002280CD0032803D147
:101C6000FF209130FFF7FAFD10BD19204001F9E780
:101C70004B20C000F6E7FF20F530F3E70C00002012
:101C800010B50349012048700020FFF7E7FD10BDA3
:101C90000C0000201CB50B480090400201906946E2
:101CA0000948FEF76DFB0848FEF714FD14210648AD
:101CB000FEF7B0FC0A20FEF73BFD0348FEF79AFB57
:101CC00080B21CBD0800000C9800002010B5012156
:101CD00089030348FEF71AFE012800D0002010BD3A
:101CE000000800501CB50B48009000140190694694
:101CF0000948FEF745FB0848FEF7ECFC14210648AE
:101D0000FEF788FC0A20FEF713FD0348FEF772FB7E
:101D100080B21CBD100000109800002001488068AF
:101D2000704700000C00002010B5054B002801D0C2
:101D3000012200E0002202211846FEF7ECFD10BD52
:101D400000040050F8B505273F071C4615460E460F
:101D5000002801D0012200E0002204213846FEF7CD
:101D6000DAFD002E01D0012200E0002220213846B9
:101D7000FEF7D1FD002D01D0012200E0002240211C
:101D80003846FEF7C8FD002C01D0012200E00022F9
:101D900080213846FEF7BFFDF8BDFEF7D1FDFFF705
:101DA0001BFCFFF799FBFEF78BFAFFF7CFFB4B20ED
:101DB000C8218001FFF77AFCFFF768FBFFF748FBBB
:101DC000FF20F530FFF74AFD7D24E400FFF77EFF9A
:101DD000002806D1FFF75EFFA04202D8FEF7B6FA50
:101DE00008E0FFF773FF002804D00120FFF79CFFF5
:101DF00000F07AF8FFF776FFA04201D900F074F8FE
:101E0000C820FEF795FCFFF72DFDFFF787FF014681
:101E10009639052902D8FFF733FFD7E701469B39EA
:101E2000912902D8FFF70CFFD0E70146FF392D3981
:101E30000529F0D9491F9129F4D991390529EAD901
:101E4000491F9129EED94B21C9008842BEDD00F01F
:101E50004BF8BBE710B5234C0121A07800283AD0FD
:101E60006068401CC217920F1218920892006060BE
:101E7000801A06D001280ED0022816D003282DD1B2
:101E80001CE0192021704001FFF7E8FC00231A46EE
:101E9000194601201CE0022020704B20C000FFF7F3
:101EA000DDFC00231A46012111E003202070FF20F1
:101EB000F530FFF7D3FC0023012207E00420207057
:101EC000FF209130FFF7CAFC0123002200210020EF
:101ED000FFF738FF02E0A170FFF7B2FE0020A0601C
:101EE00010BD00000C00002010B507480121417012
:101EF000002181700846FFF7B1FC00231A461946FD
:101F00001846FFF71FFF10BD0C0000200000000066
:101F10000000000001020304060708090304060884
:101F20000C10182030000000000102030400000023
:101F3000501F00080000002018000000201C0008AE
:101F4000681F00081800002018050000301C000859
:101F50000000000000002000000000000100000060
:081F6000000000000000000079
:04000005080000C12E
:00000001FF
