:020000040800F2
:10000000B8050020D5000008AD1B0008771A0008CD
:1000100000000000000000000000000000000000E0
:10002000000000000000000000000000F71B0008B6
:100030000000000000000000F51B0008F91B00088C
:100040004922000800000000050100080501000821
:100050000501000801060008050100080501000867
:100060000000000005010008050100080501000866
:100070000501000805010008000000000501000856
:100080000000000000000000000000000000000070
:10009000D51C000800000000000000000501000859
:1000A0000000000005010008000000000000000042
:1000B0000501000805010008000000000000000024
:1000C0000348854600F0F0F900480047D5260008AF
:1000D000B80500200C4880F308880C480168090E18
:1000E0000B4A914205D10B480B4901600B480C4962
:1000F00001600C4880470C480047FEE7FEE7FEE73A
:10010000FEE7FEE7FEE70000B8050020040000005F
:100110001F000000341002400100000000000140F8
:1001200000000000811C0008C100000830B50B462B
:10013000014600202022012409E00D46D5409D42C1
:1001400005D31D469540491B254695404019154647
:10015000521E002DF1DC30BD70B50024254600286C
:1001600001DA01244042002901DA01254942FFF762
:10017000DDFFAC4200D04042002C00D0494270BDAF
:10018000F0B51FB40646002082B005464024019118
:1001900000901BE0019922460F46304600F031F9ED
:1001A000049A059B801A994110D31046194622469D
:1001B00000F017F9361A8F410197224601200021DD
:1001C000009F00F00EF938184D4100902046641E43
:1001D0000028DFDC019B00982946324607B0F0BDBD
:1001E000D2B201E00270401C491EFBD270470022CF
:1001F000F6E710B513460A4604461946FFF7F0FF26
:10020000204610BDF8B502464A40D40F42004B00CC
:1002100052085B089A4202D20246084611464A003A
:1002200023D0C30D4A00DDB2120EAD1A202D35DAEF
:1002300049020126490AF6058A19002C00D05242CB
:1002400020214F1B1146B9402A411018C20D9A4275
:1002500021D0002C17D0012D08DCDA05801AD20F2E
:100260008019D207DBB200F0E5F8F8BDDA05801A94
:10027000012340001B06C01880185A428018CA0F7C
:100280001043490007E04908C2071143DA05801A04
:1002900080194008801800F0C5F8F8BD61000122FF
:1002A000511A001BF7E70122D2075140AAE70122A9
:1002B000D2075040A6E7024670B54A40D30FDB078D
:1002C00040002DD04A002AD0010E140E0002120266
:1002D0000919400A520A8418E50104465443000AE9
:1002E000120A2E045043A4194219200CC543AA181F
:1002F000120C0125AD03521C521912047F3924043B
:1003000000D0521C104301D44000491EC2B20C065A
:10031000C0092018401C4008802A02D003E00020B9
:1003200070BD40084000002900DA0020184370BD6D
:1003300070B502464A40D50F40004A00ED0740081C
:100340005208002814D0002A12D0C40DD30D410247
:100350000120C0055202490A520AE41A091812186B
:100360007D34914201D3641C00E04900002C01DA85
:10037000002070BD0023914201D3891A0343400835
:1003800049000028F7D100290AD0914202D1012169
:10039000C90705E0914201D2012101E00121C943D1
:1003A000E005C018401900F03DF870BD10B50022FE
:1003B0009623114600F03EF810BD41004002012294
:1003C000400AD205090E80187F2901DA0020704703
:1003D000962903DC9622511AC84070479639884006
:1003E000704710B5202A04DB0146203A91400020D6
:1003F00010BD914020239C1A0346E34019439040CE
:1004000010BD10B5202A04DB0846203AD040002158
:1004100010BD0B46D340D0402024A21A914008437F
:10042000194610BD002904DA401C490001D14008DA
:100430004000704770B40024050C05D1102400045E
:1004400002D1002921D01124050E01D10002083467
:10045000050F01D10001241D850F01D18000A41CCE
:10046000002801DB4000641C002908D020252E1B39
:100470000D46F540A14000D0012129430843010663
:100480001B1B000ADB1D02D5002070BC7047DB057A
:10049000181880180029F8DA401C4900F5D170BC02
:1004A0004008400070470000064C0125064E05E05C
:1004B000E36807CC2B430C3C98471034B442F7D385
:1004C000FFF702FE6C2A00088C2A0008F8B50446E3
:1004D000006881688907890F012902D10168C9076D
:1004E00029D18168154A102611400125002915D10E
:1004F000816829438160134811490068FFF716FE9F
:1005000000E0401E00900028FBD100F0E7FB07460A
:100510000CE000F0E3FBC01B0A2807D9606D3043F4
:100520006065A06D2843A0650120F8BD20680068C3
:10053000C043C007EDD10020F8BD000017000080C7
:1005400040420F00100000201CB500211F48009100
:100550001D4A01910260016401224164D307816454
:100560004360C26381600223836302610346C1600A
:1005700020331A70FF245970C234446281621A73A6
:100580008261042342634361C261016300F004F9A4
:10059000002801D000F0C0F80D4800904002019002
:1005A00069460A4800F0BAF8002801D000F0B4F813
:1005B000084800906946054800F0B0F8002801D0CE
:1005C00000F0AAF81CBD000000240140E00000205B
:1005D0000800000C1000001010B507490868401C06
:1005E0000860C107054804D00022022100F06FFB1B
:1005F00010BD0122F9E7000018000020000400509F
:1006000010B5012000F0A4FA10BD0000F0B587B0CD
:1006100035A001F021FE3848002505618561374C81
:10062000A06B21040843A06300F0B4FB00F0AAFB18
:10063000E0680121C9030843E060E06A0121084342
:10064000E062E06A08400590E06A02263043E0621A
:10065000E06A30400590E06A04273843E062E06ACF
:1006600069463840059026480090032001900520F7
:100670000295000700F078FA6946224800F074FA03
:100680006946214800F070FAE06A40084000E062E4
:10069000E06AB043E062E06AB843E062A06B400801
:1006A0004000A06301F006FAA06B21040843A06398
:1006B0000121084600F076FB00F01EFB01F0A0FAD5
:1006C00001F01EFAFFF740FF01F054FA4B20C82159
:1006D000800101F007FB01F0EDF901F0CDF90BA06D
:1006E00001F0BAFD07B0F0BD656E746572207374D9
:1006F0006F700D0A0000000000E000E000100240F2
:10070000FFFF000000040050000800507765616B97
:1007100075700D0A0000000070470000F0B5024639
:100720004032137C012B0ED00123137403689C68A4
:1007300065070024002D08DA416D20231943416527
:1007400014740120F0BD0220F0BD0F4F4E68BD05AE
:10075000BE420E489E6A0F6809D07F037F0B3E435E
:100760009E62096889030CD58168294308E07F03EC
:100770007F0BBE439E620968890302D58168A94345
:10078000816014740020F0BD0110000000270140BA
:100790000068006C7047000070B5040006D0606D02
:1007A000264600254036002802D006E0012070BD14
:1007B000A5653574204600F0D3F8606DC00603D4FB
:1007C00021688868400705D5606D10210843606581
:1007D0003574EBE7606DFF22013290430222104333
:1007E000606588688207920F5B48012A02D10A6817
:1007F000D2072BD1032362689B079A4205D05B4244
:100800009A4202D05B009A4209D10A69920092088A
:100810000A6121680A6963681A430A610CE00A697F
:10082000920092080A6181680F22920491438160CC
:1008300081686268114381602168CA6818239A43FD
:10084000CA602168CA68A3681A43CA608168012225
:100850005206914381608168A28E520611438160E5
:1008600020688168C90004D48168012212071143FD
:1008700081602068C168394A1140C1602069E1681F
:10088000022825D000200143204620300278037B37
:1008900052035B001A431143226B1143A269920376
:1008A0001143E269D20311432268D3681943D1602E
:1008B000616A0A46FF3AC23A05D0A26A1143226829
:1008C000D3681943D16042780121012A02D00BE09C
:1008D0000420D8E70078002823D0606D2022104340
:1008E0006065A06D0843A065E06B012820681FD0FB
:1008F0000169C90703D001694908490001612068FD
:100900004169C908C900416120684169A26B11436E
:100910004161A565606D80088000401C6065002015
:1009200070BD2068C26801231B041A43C260DBE764
:100930000269FF239B009A43026120680269236CCD
:10094000A66C1A43636C33431A4302612068026940
:100950000A430261D3E70000002701401902FEFFAD
:1009600010B586B0044614216846FFF740FC0E49D6
:100970002068884216D10D48416B421511434163EE
:10098000C16A01221143C162C06A694610400590E4
:1009900018200090032001900020029005200007FD
:1009A00000F0E2F806B010BD002401400010024043
:1009B000F8B504464069254640350E4608280BD058
:1009C0002068C068C00709D0606D202108436065B9
:1009D000002028740120F8BD082700E00C2700F053
:1009E0007DF9009011E0701C0FD0002E05D000F0B2
:1009F00075F90099401AB04207D9606D0421084387
:100A00006065002028740320F8BD20680068384223
:100A1000E9D0606D01214902084360652068C16822
:100A200009058A0F0C21002A1BD12022125D002A01
:100A300017D10268120714D5826853070122002BD0
:100A400008DB43688B434360606D13029843104397
:100A5000606506E0606D202318436065A06D10435B
:100A6000A065A069002801D1206801600020F8BDC0
:100A700070B50446216800208968490721D42546BD
:100A80004035297C01291CD001212974E169012903
:100A900004D02046FFF71AFD002811D1616D0A4AE3
:100AA0001140FF220132114361650021A1652974C3
:100AB00022681C21116021688A6804231A438A6015
:100AC00070BD022070BD0000FEF1FFFF70B504464E
:100AD00000F004F90546601C00D0641C00F0FEF82C
:100AE000401BA042FAD370BD70B501280BD10A207B
:100AF000FFF7ECFF05252D0700240121284600F013
:100B0000E1F8002806D070BD0520641CFFF7DEFF69
:100B1000642C14DA0121284600F0D4F80028F3D020
:100B2000642C0CDA01F062FD002801D101F086FE90
:100B300001F05CFD014603A001F08EFB70BD01F0E9
:100B40004DFF70BD67657420696E2025640D0A0035
:100B500010B504494A69024202D04861FFF7C4FF58
:100B600010BD000000040140F8B50023012498E006
:100B700027469F403A4070D04D68022D01D0122D7B
:100B800014D1DD08AD002D1800952D6A5E07AC4626
:100B9000F50E0F26AE46AE406546B543AC460E692F
:100BA0007546AE4065462E43009D2E624D68012D70
:100BB00005D0022D03D0112D01D0122D16D185683C
:100BC0000326AC465D00AE46AE406546B543AC4636
:100BD000CE687546AE4065462E43866046680D7900
:100BE000BE43ED06ED0F9D403543456006685F004E
:100BF0000325BD40AE46AE430D79B446AE07B60FF1
:100C0000BE4065462E430660C6687546AE438D6895
:100C1000BD403543C5604D68ED0041D5244D6E6B38
:100C200026436E639E08234DB6007519AC46AD6829
:100C30009E07360F0F27B740BD4305273F07B84231
:100C400001D100270BE01C4FB84201D1012706E07B
:100C50001A4FB84202D1022701E021E00627B7402F
:100C60002F436546AF60164D2E684F689643FF03CD
:100C700000D516432E606E684F689643BF0300D5BB
:100C800016436E60AE684F689643FF0200D5164368
:100C9000AE60EE684F689643BF0200D51643EE6023
:100CA0005B1C0A681546DD4000D061E7F8BD000016
:100CB00000100240000001400004005000080050F5
:100CC000000401400069084000D001207047002A5C
:100CD00001D081617047816270470000014800685F
:100CE000704700000C00002002480168491C0160A8
:100CF000704700000C00002010B50848002401686F
:100D0000402211430160204600F00AF8002801D07B
:100D1000012401E000F01CF8204610BD0020024034
:100D200070B5054609487D210024C9000068FFF719
:100D3000FDF900F021FC002801D0012404E000228C
:100D40002946501E00F01AF8204670BD1000002001
:100D50000448416B012211434163816B020411433A
:100D60008163704700100240C106C90E012088400F
:100D7000014908607047000000E100E010B500F094
:100D800017FF10BD0248016802151143016070474A
:100D9000007000400248016842151143016070472D
:100DA000007000400A4B1A689208920002431A60D1
:100DB00008480369042213430361012906D040BF98
:100DC00020BF20BF016991430161704730BFF9E73F
:100DD0000070004000ED00E0F8B5044600784F4D8B
:100DE000800672D54D4E0027403EB06BC00004D443
:100DF000B06BA9050843B063012749480168C905DC
:100E000011D40168821511430160FFF767FF00905C
:100E100005E0FFF763FF0099401A642837D840487F
:100E20000068C005F5D532680321090560680A40ED
:100E30000140914208D08103890F032904D1316810
:100E4000890301D50120F8BD2A69032109040A405C
:100E500022D0084090421FD0207880061CD52869F7
:100E60002A6988430121C9040A432A612A698A43FD
:100E70002A612861C0050FD5FFF730FF009008E018
:100E8000FFF72CFF0099411A2648814201D903201F
:100E9000F8BD28698005F3D561688803800F0328B1
:100EA00005D132680005824301400A433260286957
:100EB000032261681204114008432861002F04D006
:100EC000B16B012000078143B1632078800705D50D
:100ED000E8680C218843A1680843E860207840074F
:100EE00006D5E868032189028843E1680843E86081
:100EF0002078000706D5E8680321090388432169A3
:100F00000843E8602078000606D5E86803218904D4
:100F1000884361690843E8600020F8BD4010024042
:100F20000070004088130000F8B50E4605007DD023
:100F300053480068C007C00FB0420AD25048016849
:100F400049084900314301600068C007C00FB04242
:100F500071D128784B4C800705D5E068F021884393
:100F6000A9680843E0602878C00752D06868022862
:100F700017D0032818D02168012818D08905002926
:100F800059DAE168890889000143E160FFF7A6FEAC
:100F900069680746022912D003291CD0012926D0EE
:100FA00033E021688903EAE721688901E7E7490717
:100FB000E5E7FFF793FEC11B3348814223D8E06881
:100FC0000007800F0228F4D123E0FFF787FEC11B42
:100FD0002D48814217D8E0680007800F0328F4D11C
:100FE00017E0FFF77BFEC11B274881420BD8E06862
:100FF0000007800F0128F4D10BE0FFF76FFEC11B43
:101000002148814201D90320F8BDE0680007800F24
:10101000F3D11B480168C907C90FB1420DD9016856
:101020004908490031430160006800E003E0C0075F
:10103000C00FB04201D00120F8BD2878400706D586
:10104000E068072109028843E9680843E0602878DE
:10105000000707D5E0680721C90288432969C9004C
:101060000843E06000F036F8E168084A0906090F15
:10107000515CC840064908600020FFF751FEF8BDEA
:10108000002002400010024088130000042A0008DB
:1010900010000020044805490068C968044A490551
:1010A000490F515CC84070471000002000100240FA
:1010B0001D2A0008044805490068C968044A8904D3
:1010C000490F515CC84070471000002000100240DA
:1010D0001D2A000810B5184AD1680C2008400428C1
:1010E0000BD0082810D00C2810D050680004410FF5
:1010F0000120C003491C884010BD1068C00601D5FE
:101100000E4810BD0E4810BD0E4810BD88020E4B93
:10111000000F185C0902D368890F491CDB0301D555
:10112000084A05E01268D20601D5044A00E0044AE4
:101130005043FEF7FBFF10BD0010024000093D00C8
:101140000024F40000127A00142A0008FEB50500FD
:101150007ED0FE4CE7680C20E668074001200004C2
:1011600006402878C00747D0082F05D00C2F0AD199
:1011700001200004864206D1206880033CD56868BF
:101180000028E5D038E0012069680004814203D1DD
:1011900021680143216011E0052301221B04920410
:1011A0009942216802D111432160F1E78143216016
:1011B0002168014000912068904320606868002801
:1011C0000DD0FFF78BFD009005E0FFF787FD00993C
:1011D000401A64287ED820688003F6D50CE0FFF71B
:1011E0007DFD009005E0FFF779FD0099401A642825
:1011F000F0D820688003F6D4287880075CD5E868AA
:10120000810604D5226820210A43226088430923ED
:10121000042F0DD00C2F01D1002E09D000283BD077
:101220002168994301432160FFF758FD064627E0F6
:101230002168490701D500288AD061681F2212025F
:1012400091432A691202114361602168994300E0C9
:101250008EE101432160FFF73DFFE16809060A0FB7
:10126000BB49895CC840BB4908600020FFF758FDB6
:10127000002873D120E0FFF731FD801B0228A9D898
:1012800020684007F7D560681F2109028843296953
:101290000902084360600FE02068400840002060B9
:1012A000FFF71CFD064604E0FFF718FD801B02282F
:1012B00090D820684007F7D42878C00660D5002F62
:1012C0000DD0A86900284AD02068FF2101310843C9
:1012D000206000E0C4E0FFF701FD06462CE0206836
:1012E000800502D5A8690028A6D0606807214903B7
:1012F0008843296A084360606068297F0002000A09
:10130000090608436060286A410B0120C003491C9C
:101310008840E16809060A0F8D49895CC8408D49FB
:1013200008600020FFF7FCFC002817D128E0FFF739
:10133000D5FC801B0228A2D820688005F7D56068FC
:10134000072149038843296A084360606068297F50
:101350000002000A09060843606011E0E1E021682C
:10136000FF20013081432160FFF7B8FC064604E00E
:10137000FFF7B4FC801B022872D820688005F7D4E0
:101380002878754E000724D568690028306910D088
:10139000012108433061FFF7A1FC009005E0FFF751
:1013A0009DFC0099401A02285AD830698007F6D56A
:1013B0000FE0400840003061FFF790FC009005E02E
:1013C000FFF78CFC0099401A022849D83069800741
:1013D000F6D42878400765D500200290A06BC000A5
:1013E00006D4A06B012109070843A06301200290E5
:1013F0005A480168C90511D401688215114301607A
:10140000FFF76CFC009005E0FFF768FC0099401ABC
:10141000642825D851480068C005F5D5FF20AA6882
:101420000130824203D131690143316111E0012170
:101430008902002A07D005231B029A4203D1326990
:101440000A433261EFE7326982433261306988438F
:101450003061A86800280FD0FFF740FC009007E03B
:101460005EE0FFF73BFC0099411A3D48814257D8A6
:1014700030698005F5D50DE0FFF730FC009006E0FF
:10148000FFF72CFC0099411A3548814248D8306951
:101490008005F5D40298002804D0A16B0120000734
:1014A0008143A163686A002864D00C2F3ED00126D6
:1014B00036060228206805D0B0432060FFF70EFCF6
:1014C00005462FE0B0432060FFF708FC074604E024
:1014D000FFF704FCC01B022822D820688001F7D443
:1014E000E96AA86AE2680843296BFD231B049A4352
:1014F00011430843E060206830432060FFF7EEFBB3
:10150000054604E0FFF7EAFB401B022808D82068E4
:101510008001F7D52EE0FFF7E1FB401B022801D93F
:101520000320FEBD20688001F5D423E00128F8D017
:10153000E06801210904AA6A0140914218D10F21F3
:101540008904EA6A0140914212D10BE00010024086
:10155000042A0008100000204010024000700040E3
:1015600088130000032189050840296B884201D0B7
:101570000120FEBD0020FEBD094910B5401E884275
:1015800001D9012010BD074C60610321081F00F044
:101590000FFB0020A06107202061002010BD00008B
:1015A000FFFFFF0000E000E0F0B502462032137EAE
:1015B000012B15D0012717760223537605686C6836
:1015C000AB687026B4430E68496826438024A34361
:1015D00019436E6000688160577600201076F0BD78
:1015E0000220F0BD704770B504460068016900250F
:1015F000C9438907002915DBC168C943890711D48C
:10160000E91E01610120207620688069800720465C
:1016100002D0FFF7E7FF04E000F09EF8204600F05C
:101620003DF9257620680169C943490717D4C16887
:10163000C943490713D40421C9430161022020761C
:10164000206880698005800F204602D0FFF7CAFF1E
:1016500004E000F081F8204600F020F925762068AB
:101660000169C943090716D4C168C943090712D4DF
:101670000821C9430161042020762068C0698007E1
:10168000204602D0FFF7AEFF04E000F065F82046E8
:1016900000F004F9257620680169C943C90617D40A
:1016A000C168C943C90613D41021C9430161082088
:1016B00020762068C0698005800F204602D0FFF7A1
:1016C00091FF04E000F048F8204600F0E7F82576A6
:1016D00020680169C943C90708D1C168C943C9075E
:1016E00004D1891E0161204600F0EBF820680169F1
:1016F000C943490609D4C168C943490605D44021F4
:10170000C9430161204600F0DDF870BD10B586B018
:10171000044614216846FEF76AFD01212068890706
:10172000884214D10B48C16A01221143C162C06AC8
:101730006946104005909002009002200190002020
:1017400002900390052004900007FFF70DFA06B001
:1017500010BD0000001002407047F8B50646044670
:101760002036307E0D4601280DD001203076022033
:1017700070760427002A08D0042A16D0082A2AD016
:101780000C2A4DD137E00220F8BD206800F01DFB87
:101790002068816908221143816120688169B94309
:1017A000816120688169EA6812E0206800F025FB09
:1017B000206882690121C9020A4382612068816927
:1017C000012292029143816120688169EA681202D4
:1017D0001143816124E0206800F028FB2068C26981
:1017E00008210A43C2612068C169B943C161206808
:1017F000C169EA6812E0206800F033FB2068C16923
:101800000122D2021143C1612068C269012189020B
:101810008A43C2612068C169EA6812021143C1614A
:101820000120707600203076F8BD70B5040005D038
:1018300025462035687E002802D006E0012070BDD4
:1018400000202876204600F00BF802206876211D43
:10185000206800F089FA01206876002070BD000041
:1018600000B50D4887B0826B01210A438263C26ACA
:101870000A43C262C06A02910840059002200090AB
:101880000190032104900391052069460007FFF7AA
:101890006BF907B000BD000000100240704710B5A2
:1018A00004460068012200F083FA20688168490735
:1018B000490F062903D0016801221143016000206D
:1018C00010BD7047704710B5040003D0606F00284A
:1018D00002D007E0012010BD0021702001552046F4
:1018E00000F026F824206067206801684908490054
:1018F0000160204600F074FB0128ECD0606A0028EB
:1019000002D0204600F0D6FA206841680922D202AF
:1019100091434160206881682A2291438160206858
:101920000168012211430160204600F029FB10BD2F
:1019300010B586B0044614216846FEF758FC1049DD
:10194000206888421AD10F48816B0122520411434A
:101950008163C26A01210A43C262C06A02910840DF
:10196000059048020090122001900320039004206B
:101970000490052069460007FFF7F6F806B010BD91
:101980000044004000100240FFB50446406F83B0A1
:1019900017460D4620285CD1002D0AD0002F08D014
:1019A000A168C001814207D12069002804D1E8075D
:1019B00002D0012007B0F0BD204660300290007CCC
:1019C000012846D00298012101740020E0672120FF
:1019D0006067FFF783F926464036019037827782A9
:1019E0000120A1680003814202D12069002802D0B1
:1019F0002F46002511E000270FE00022802120461D
:101A000000F0F0FB002815D1002F15D021683878A0
:101A100088627F1C708A401E7082708A019B002839
:101A200006980090E9D100224021204600F0DAFB20
:101A3000002808D00320BDE728882168C005C00D14
:101A40008862AD1CE6E720206067029900200874D8
:101A5000B0E70220AEE7704710B501684A68D2438C
:101A6000920507D48A68D243D20703D1921E8A60B6
:101A7000FFF7F1FF10BDFEE700B587B014216846FF
:101A8000FEF7B5FB0948C26A04210A43C262C06A74
:101A90000840059008030090002001900220029069
:101AA00069460348FFF760F807B000BD0010024028
:101AB0000008005000B587B014216846FEF797FB78
:101AC0000D48C26A01210A43C262C06A00910840FF
:101AD00005900A4801900291052069460007FFF72A
:101AE00043F8002202210520FFF748F90520FFF7FF
:101AF0003BF907B000BD00000010024000002110BB
:101B0000F0B587B014216846FEF771FB1748C16A2B
:101B100001252943C162C16A29400591C16A022693
:101B20003143C162C06A052730403F07059000225B
:101B3000E4213846FFF7CBF8002202210C48FFF7DA
:101B4000C6F8E420002400900294694601950394AD
:101B50003846FFF709F80294694605480096019552
:101B60000394FFF701F807B0F0BD00000010024039
:101B70000004005010B50C480A4901604B21C9010E
:101B8000416000218160C16001618161C1610C22FD
:101B9000016242614162FFF796FE002801D0FEF724
:101BA000BBFD10BD004400404C0000207047000009
:101BB0008307FF22DB0E9A408907090E994000280F
:101BC0000BDA0007000F0838830808489B00181834
:101BD000C36993430B43C3617047830804489B0068
:101BE0001B181868904308431860704700ED00E028
:101BF00000E400E07047704710B5FFF775F810BDBE
:101C000010B598B034216846FEF7F1FA14210DA8FA
:101C1000FEF7EDFA182112A8FEF7E9FA1748016855
:101C20000322D2029143C214891801600A20009055
:101C30001020049002200121099000244005059104
:101C40000C9003910A940B946846FFF77FFA0F20DB
:101C50000D9003200E900F941094012111940DA863
:101C6000FFF762F92220129001204004139014948F
:101C700012A8FFF7B1F818B010BD000000700040C6
:101C800010480168821511430160C1680E4A114075
:101C9000C16001680D4A114001608168490849002E
:101CA000816001680122920491430160C168FD22B4
:101CB00012049143C160002101610549C00388609D
:101CC00070470000001002400C40FF88F6FFF6FE4F
:101CD00000ED00E010B50248FFF785FC10BD0000E4
:101CE0007801002030B587B00024059401251C48F8
:101CF0000494009401940294AD07039405601721A5
:101D000084604160046117494461C160FFF78DFD43
:101D1000002801D0FEF700FD049404A910480594A2
:101D2000FFF742FC002801D0FEF7F6FC602000908F
:101D3000019402940422694603940948FFF70DFDBB
:101D4000002801D0FEF7E8FC04210548FFF7A7FDB5
:101D50000348FFF7DBFC0020A86307B030BD00009C
:101D60003C010020E703000030B5026801239B0717
:101D70000E4C984201D0A04203D17025AA434D6871
:101D80002A43984201D0A04204D103231B029A4364
:101D9000CB681A4380239A430B691A4302608A680E
:101DA000C262096881620121416130BD00080140C1
:101DB00010B5CB06DB0E0121046A99408C43046206
:101DC000016A9A401143016210BD30B5026A52089F
:101DD00052000262026A456883697024A3439C082A
:101DE0000B68A40023430224A2438C68456014437B
:101DF000836149684163046230BD30B5026A1023D3
:101E00009A430262036A4568826973242402A243EA
:101E10000C6824021443202293438A68456012010F
:101E20001A43846149688163026230BD30B5026A39
:101E3000FF2301339A430262026A4568C369702432
:101E4000A3439C080B68A400234301246402A2431B
:101E50008C68456024021443C3614968C16304620D
:101E600030BD30B5026A01231B039A430262036A44
:101E70004568C26973242402A2430C6824021443F7
:101E80000122520393438A68456012031A43C461D6
:101E900049680164026230BD012189078863704787
:101EA0000348C178002902D18168491C81607047CC
:101EB0001C00002010B5818CC90707D001684A6852
:101EC00001235B049A43836A1A434A60818C890721
:101ED00007D501684A6801231B049A43C36A1A4361
:101EE0004A60818C490707D501684A6801239B0431
:101EF0009A43036B1A434A60818C090707D501682E
:101F00004A680123DB039A43436B1A434A60818C7E
:101F1000C90607D50268916801231B039943836BA7
:101F200019439160818C890607D501688A6801236D
:101F30005B039A43C36B1A438A60818C490612D5AE
:101F400003685A6801210905046C8A4322435A60D8
:101F5000026C8A4207D10268516803235B059943EA
:101F6000436C19435160818C090607D501684A68A2
:101F70000123DB04806C9A4302434A6010BD0000D9
:101F8000F8B500260446C667FEF7A8FE0546206899
:101F90000068124F000709D501212B460022490590
:101FA0002046009700F01EF900280DD12068006837
:101FB00040070BD501212B460022890520460097BA
:101FC00000F010F9002801D00320F8BD2020606740
:101FD000A067603426740020F8BD0000FFFFFF01F9
:101FE000F8B504462669A268E7693243666910209D
:101FF00000253E432368324370491E68704F3E40BF
:1020000016431E602268536803263603B343E6680E
:10201000334353602368A2698B4201D0266A32435E
:102020009E680B273F02BE4316439E60654E2368A1
:10203000654AB3420AD1D2680C26324026D0042A1F
:1020400028D0082A24D00C2A10D10EE08B420DD1C2
:10205000D66803229202164018D001229202B61AC4
:1020600018D0B61A14D0964200D10820564A01263C
:10207000403A564FF6038B4236D100280CD0022846
:102080000DD0042812D008281FD11CE00020EDE755
:102090000220EBE70420E9E7FEF7FCFF08E0106808
:1020A000C00601D5384605E0494803E0FFF712F8BD
:1020B000002873D0626851005118814205D811037D
:1020C000814202D303E03046F4E7012566E0010EC9
:1020D00006025008002330185941FEF751F8032139
:1020E0000902411A3B4A55E0E169B14232D103008D
:1020F00000F0C2F809070A0D06250606062B0600A1
:10210000E3E7FEF7C7FF1CE0FEF7D4FF19E0106815
:102110006168C00602D548082F4A01E02F4A4808E6
:102120008018FEF703F880B201462D4A103991421B
:10213000CBD8511C01400007400F08432CE0FEF7AC
:10214000C9FF616840004A08EAE76168012248085F
:102150001204E5E7030000F08FF809070A0D0626D0
:102160000606062C0600B0E7FEF794FF1DE0FEF71A
:10217000A1FF1AE010686168C00602D54808C019BE
:1021800002E013484A081018FDF7D0FF80B201465C
:10219000134A1039914298D82168C86000202066FF
:1021A00060662846F8BDFEF795FF61684A0880180A
:1021B000EAE7616848088019E6E700000048004047
:1021C000F369FFEF004400404010024000093D0069
:1021D0000024F400FFFC0F0000127A000048E80120
:1021E000EFFF0000FFB581B017460E4604460A9D7A
:1021F00009E0681C07D0FEF771FD0499401AA84257
:102200000CD8002D0AD02068C1693046884318D008
:102210000020B842EDD0002005B0F0BD2068016874
:10222000FF22A1329143016020688168490849007A
:10223000816020206067A067002060342074032044
:10224000EAE70120E5E7000010B50248FFF704FCCB
:1022500010BD0000CC0000200FB410B503A9044B42
:10226000044A029800F024F810BC08BC04B01847D7
:102270008D2500081400002030B47446641E2578B3
:10228000641CAB4200D21D46635D5B00E31830BCAA
:10229000184702E008C8121F08C1002AFAD1704787
:1022A0007047002001E001C1121F002AFBD17047D6
:1022B000FFB58DB00446002506E025280AD0109A07
:1022C0000F999047641C6D1C20780028F5D1284692
:1022D00011B0F0BD00270121484A009700E00743F4
:1022E000641C23780846203B98401042F7D12078A0
:1022F0002E2817D1042007436078641C2A280CD1AB
:102300000E98641C02C800910E900BE000990A22FE
:10231000514330394018641C009020780146303910
:102320000929F3D920780028D1D0642808D0692859
:1023300006D075281ED0109A0F9990476D1C5BE04F
:102340000A200E99019001C90E91002802DA40423C
:102350002D2102E0390504D52B216A461172012195
:1023600003E0F90704D02021F7E70BAE0B910DE055
:102370000021FAE70A200E99019001C90E91F7E7B2
:102380000199FDF7D3FE3031761E31700028F7D168
:1023900003A8801B20300190780701D5009801E048
:1023A000012000900199884201DD401A00E00020E0
:1023B0000027009006E002A8109AC05D0F99904790
:1023C0006D1C7F1C0B988742F5DB04E0109A3020CF
:1023D0000F9990476D1C0099481E00900029F5DC6C
:1023E00005E03078109A761C0F9990476D1C019982
:1023F000481E01900029F4DC641C65E709280100EF
:1024000070B52A482B4C02686068294BC117890FA8
:10241000091889088900411A9A4226DB002907D049
:1024200001290ED0244D022914D003293BD114E0F8
:1024300000231A461946012000F020F91E48F838FA
:102440002FE000231A460121184600F017F9D72083
:10245000800026E00023012201E001230022002168
:10246000084600F00BF928461BE0002906D0012998
:1024700009D002290BD0032915D10BE000231A46FD
:10248000194601200AE000231A46012105E0002335
:10249000012201E0012300220021002000F0EEF8DB
:1024A0000020FFF7F9FC0020E07070BD0000002064
:1024B0003C0F00001C000020E603000010B504489B
:1024C000012141700021C1700846FFF7E5FC10BDF5
:1024D0001C0000200E49024649680020CB179B0FC4
:1024E0005B189B089B00CB1A09D00A4951180A4A6D
:1024F000012B09D0022B07D0032B08D104E005499A
:1025000032315118044A3232914200D201207047D0
:102510001C000020A7FDFFFF5F090000F1B51A4C69
:1025200082B0A169A068FDF7C6FE20610746216858
:10253000E069FDF767FE606106466168FDF762FECF
:1025400001463046FDF7F4FE05462062E068394654
:102550000090FDF7B0FE0299FDF7A9FE2946FDF7B0
:10256000AAFE3946FDF74EFEA061074628460099AF
:10257000FDF7A1FE7F21C905FDF799FE3146FDF764
:102580009AFEE0613846FEBD2800002038B50446BA
:10259000684604707D231B01012269460248FFF74B
:1025A000F3F9204638BD00004C0000201CB50D4852
:1025B00000900014019069460B48FEF7AFF80A48F6
:1025C000FEF756FA64210848FEF7F2F90648FEF7CE
:1025D000DFF880B2FDF7EAFEFFF7A0FFFDF7EDFEA2
:1025E00080B21CBD10000010E000002010B5FFF705
:1025F00043FA012189030348FEF764FB012800D058
:10260000002010BD000800501CB50A480090400290
:10261000019069460848FEF781F80748FEF728FA56
:1026200064210548FEF7C4F90348FEF7B1F880B20B
:102630001CBD00000800000CE00000200148C0782C
:10264000704700001C0000200148806870470000AF
:102650001C00002003480078042801D000207047A7
:10266000012070471C00002010B500220221024802
:10267000FEF72DFB10BD000000040050F8B5052743
:102680003F071C4615460E4601281AD00022042199
:102690003846FEF71CFB012E15D0002220213846BB
:1026A000FEF715FB012D10D0002240213846FEF721
:1026B0000EFB012C0BD0002280213846FEF707FBD1
:1026C000F8BD0122E3E70122E8E70122EDE701225C
:1026D000F2E70000FEF710FBFFF792FAFFF710FA9F
:1026E000FDF732FFFFF746FA4B20C8218001FFF7C4
:1026F000F9FAFFF7DFF9FFF7BFF94648FFF7ACFD3E
:10270000454D464F6868401C6860FFF77DFF0446F2
:102710003220FEF7DBF9FFF749FF2860FFF766FF7D
:10272000A860FFF78BFFAA6806463DA02968FFF75F
:1027300093FDA868002807D13D492868884203DA3C
:10274000002E01D1FDF748FFA868012801D100F053
:1027500045F92046FFF7BEFE002801D000F03EF903
:102760003220FEF7B3F9FFF79BFBFFF76DFF04463E
:10277000002E3DD1FFF76EFF002821D12046FF3803
:1027800023380A2812D90146FF200A392330814212
:1027900014D9284961180A2908D94B21C900611A9E
:1027A00081420BD9244961180A2902D8FFF786FE15
:1027B00006E0E1218900611A814201D8FFF720FE7D
:1027C000FFF73CFF002813D1FFF744FF01280FD18A
:1027D000BC420DDA14212046FDF7BEFC05290CD0C1
:1027E0000A290AD00F2908D0002906D0FFF708FED1
:1027F000FFF724FF012803D004E0FFF75FFEF7E7AF
:1028000000F0ECF8BC4200DC7CE700F0E7F8FDF7F4
:10281000FDFE77E7282A000800000020A60400003B
:1028200042617420256420696E2025640D0A000031
:102830003C0F0000B2FDFFFF86FCFFFFF8B55F4CC8
:102840000121A07800287DD060685D4A401C60604E
:102850005C4F1668022503220423BE4224DCC617FF
:10286000B60F36189643801B06D001280AD00228DE
:102870000DD0032867D10EE0002321701A461946B7
:1028800001200DE0002325701A46012107E0227087
:102890000023012202E023700123002200210020F6
:1028A000FFF7ECFE00207CE0C617B60F3618B6081E
:1028B000B600801B09D0012829D0FF25F4356E0011
:1028C00002284AD0032872D14BE0002321701A4617
:1028D00019460120FFF7D2FE2520FFF7DDFA0A2076
:1028E000FEF7F4F84B20FFF7D7FA1420FEF7EEF8C6
:1028F0009620FFF7D1FA0520FEF7E8F8FF207830A0
:10290000FFF7CAFA0520FEF7E1F82F4849E0002357
:1029100025701A4601211846FFF7B0FE2B20FFF75D
:10292000BBFA0A20FEF7D2F85620FFF7B5FA1420BA
:10293000FEF7CCF8AC20FFF7AFFA0520FEF7C6F89B
:10294000FF2001E030E032E0AF30FFF7A5FA0520CC
:10295000FEF7BCF8D720800023E02270002301227C
:1029600002E023700123002200210846FFF786FEC3
:102970003120FFF791FA0A20FEF7A8F86320FFF74D
:102980008BFA1420FEF7A2F8C720FFF785FA05207E
:10299000FEF79CF82846FFF77FFA0520FEF796F829
:1029A0003046FFF779FA02E0A170FFF729FD002019
:1029B000E070A06005A0FFF74FFCF8BD1C000020F0
:1029C000000000203C0F0000EE0200006368616E12
:1029D0006765206D6F64650D0A00000070B5084CD6
:1029E000012565700020A070FFF756FA00231A46F3
:1029F00019461846FFF742FEFFF736FEE57070BD38
:102A00001C00002000000000000000000102030480
:102A100006070809030406080C10182030000000FF
:102A20000001020304000000737973207374617263
:102A30007431313131313131313131313131313143
:102A40003131313131313131313131313131313176
:102A50003131313131313131313131313131313166
:102A60003131313131313131310D0A008C2A0008D8
:102A7000000000204C00000092220008D82A000824
:102A80004C0000206C050000A2220008401F00003E
:102A90000000000000000000000000000000200016
:102AA0000000000000000000010000010000000024
:102AB000000000000AD7233C0000803F0000803F58
:102AC0000000803F00000000000000000000000047
:082AD0000000803F000000003F
:04000005080000C12E
:00000001FF
