:020000040800F2
:1000000028050020D500000869160008FF14000824
:1000100000000000000000000000000000000000E0
:10002000000000000000000000000000B3160008FF
:100030000000000000000000B1160008B51600081E
:100040000501000800000000050100080501000886
:10005000050100084D03000805010008050100081E
:100060000000000005010008050100080501000866
:100070000501000805010008000000000501000856
:100080000000000000000000000000000000000070
:100090000501000800000000000000000501000844
:1000A0000000000005010008000000000000000042
:1000B0000501000805010008000000000000000024
:1000C0000348854600F0ACF800480047151F0008BB
:1000D000280500200C4880F308880C480168090EA8
:1000E0000B4A914205D10B480B4901600B480C4962
:1000F00001600C4880470C480047FEE7FEE7FEE73A
:10010000FEE7FEE7FEE700002805002004000000EF
:100110001F000000341002400100000000000140F8
:10012000000000003D170008C100000830B50B4674
:10013000014600202022012409E00D46D5409D42C1
:1001400005D31D469540491B254695404019154647
:10015000521E002DF1DC30BDF0B51FB40646002064
:1001600082B005464024019100901BE0019922468F
:100170000F46304600F042F8049A059B801A9941D8
:1001800010D310461946224600F028F8361A8F413F
:100190000197224601200021009F00F01FF8381827
:1001A0004D4100902046641E0028DFDC019B009832
:1001B0002946324607B0F0BDD2B201E00270401CC1
:1001C000491EFBD270470022F6E710B513460A46D7
:1001D00004461946FFF7F0FF204610BD10B5202A4F
:1001E00004DB0146203A9140002010BD91402023BD
:1001F0009C1A0346E3401943904010BD10B5202AD5
:1002000004DB0846203AD040002110BD0B46D34005
:10021000D0402024A21A91400843194610BD000086
:10022000064C0125064E05E0E36807CC2B430C3C49
:1002300098471034B442F7D3FFF746FFCC1F0008AD
:10024000EC1F0008F8B50446006881688907890F2B
:10025000012902D10168C90729D18168154A1026F0
:1002600011400125002915D1816829438160134877
:1002700011490068FFF75AFF00E0401E0090002877
:10028000FBD100F041FB07460CE000F03DFBC01B3A
:100290000A2807D9606D30436065A06D2843A065CA
:1002A0000120F8BD20680068C043C007EDD10020E0
:1002B000F8BD00001700008040420F00040000203D
:1002C0001CB500211E4800911C4A01910260016486
:1002D000012241648164C263826393078160436049
:1002E00002610346C16020331A70FF245970C23482
:1002F0004462816219730163042341634361826133
:10030000C16100F067F8002801D000F024F80D4822
:100310000090400201906946094800F01DF800284D
:1003200001D000F018F8084800906946044800F031
:1003300013F8002801D000F00EF81CBD0024014085
:100340008C0000200800000C1000001010B50120E7
:1003500000F014FA10BD7047F0B502464032137C2D
:10036000012B0ED00123137403689C6865070024D9
:10037000002D08DA416D20231943416514740120D2
:10038000F0BD0220F0BD0F4F4E68BD05BE420E48C5
:100390009E6A0F6809D07F037F0B3E439E62096807
:1003A00089030CD58168294308E07F037F0BBE4396
:1003B0009E620968890302D58168A943816014742B
:1003C0000020F0BD01100000002701400068006C13
:1003D0007047000070B5040006D0606D2646002509
:1003E0004036002802D006E0012070BDA5653574B6
:1003F000204600F0D3F8606DC00603D421688868F9
:10040000400705D5606D1021084360653574EBE742
:10041000606DFF22013290430222104360658868BC
:100420008207920F5B48012A02D10A68D2072BD1BA
:10043000032362689B079A4205D05B429A4202D02E
:100440005B009A4209D10A69920092080A61216808
:100450000A6963681A430A610CE00A69920092080B
:100460000A6181680F229204914381608168626809
:10047000114381602168CA6818239A43CA602168C1
:10048000CA68A3681A43CA60816801225206914370
:1004900081608168A28E5206114381602068816864
:1004A000C90004D4816801221207114381602068C9
:1004B000C168394A1140C1602069E168022825D02D
:1004C00000200143204620300278037B52035B006A
:1004D0001A431143226B1143A26992031143E2694B
:1004E000D20311432268D3681943D160616A0A4676
:1004F000FF3AC23A05D0A26A11432268D368194371
:10050000D16042780121012A02D00BE00420D8E713
:100510000078002823D0606D202210436065A06D14
:100520000843A065E06B012820681FD00169C90756
:1005300003D0016949084900016120684169C9087F
:10054000C900416120684169A26B11434161A56501
:10055000606D80088000401C6065002070BD2068D0
:10056000C26801231B041A43C260DBE70269FF2350
:100570009B009A43026120680269236CA66C1A43AF
:10058000636C33431A430261206802690A430261C3
:10059000D3E70000002701401902FEFF10B586B026
:1005A000044614216846FFF70EFE0E492068884273
:1005B00016D10D48416B421511434163C16A0122B6
:1005C0001143C162C06A694610400590182000902E
:1005D00003200190002002900520000700F0DAF8C7
:1005E00006B010BD0024014000100240F8B50446DA
:1005F0004069254640350E4608280BD02068C06863
:10060000C00709D0606D2021084360650020287470
:100610000120F8BD082700E00C2700F075F90090D4
:1006200011E0701C0FD0002E05D000F06DF900997C
:10063000401AB04207D9606D04210843606500206C
:1006400028740320F8BD206800683842E9D0606D46
:1006500001214902084360652068C16809058A0FC5
:100660000C21002A1BD12022125D002A17D102681A
:10067000120714D5826853070122002B08DB436858
:100680008B434360606D130298431043606506E03E
:10069000606D202318436065A06D1043A065A069BC
:1006A000002801D1206801600020F8BD70B5044623
:1006B000216800208968490721D425464035297CD6
:1006C00001291CD001212974E169012904D02046A7
:1006D000FFF7B8FD002811D1616D0A4A1140FF22D1
:1006E0000132114361650021A165297422681C2132
:1006F000116021688A6804231A438A6070BD022051
:1007000070BD0000FEF1FFFF70B5044600F0FCF87C
:100710000546601C00D0641C00F0F6F8401BA042A7
:10072000FAD370BD70B5012818D10520FFF7ECFF92
:1007300005252D0700240121284600F0D9F80128BD
:100740000CD1FF2691360121284600F0D1F801286E
:1007500005D0A000211807A001F0C0FA70BD052047
:10076000641CFFF7D1FFB442EDDB002001F0E8F894
:10077000EFE7000074696D652025640010B5044939
:100780004A69024202D04861FFF7CCFF10BD000069
:1007900000040140F8B50023012498E027469F405B
:1007A0003A4070D04D68022D01D0122D14D1DD08D1
:1007B000AD002D1800952D6A5E07AC46F50E0F268C
:1007C000AE46AE406546B543AC460E697546AE4092
:1007D00065462E43009D2E624D68012D05D0022DE9
:1007E00003D0112D01D0122D16D185680326AC46F9
:1007F0005D00AE46AE406546B543AC46CE68754634
:10080000AE4065462E43866046680D79BE43ED06D0
:10081000ED0F9D403543456006685F000325BD40F0
:10082000AE46AE430D79B446AE07B60FBE40654640
:100830002E430660C6687546AE438D68BD4035439D
:10084000C5604D68ED0041D5244D6E6B26436E6347
:100850009E08234DB6007519AC46AD689E07360F4D
:100860000F27B740BD4305273F07B84201D10027F6
:100870000BE01C4FB84201D1012706E01A4FB842E5
:1008800002D1022701E021E00627B7402F43654649
:10089000AF60164D2E684F689643FF0300D5164390
:1008A0002E606E684F689643BF0300D516436E6096
:1008B000AE684F689643FF0200D51643AE60EE68FF
:1008C0004F689643BF0200D51643EE605B1C0A6872
:1008D0001546DD4000D061E7F8BD00000010024081
:1008E00000000140000400500008005000040140D6
:1008F0000069084000D001207047002A01D08161C2
:10090000704781627047000001480068704700002E
:100910000000002002480168491C01607047000087
:100920000000002010B5084800240168402211434F
:100930000160204600F00AF8002801D0012401E0FF
:1009400000F01CF8204610BD0020024070B505469E
:1009500009487D210024C9000068FFF7E7FB00F08B
:10096000F7FB002801D0012404E000222946501E94
:1009700000F01AF8204670BD040000200448416BC6
:10098000012211434163816B02041143816370476B
:1009900000100240C106C90E0120884001490860CC
:1009A0007047000000E100E010B500F05FFE10BDF0
:1009B000F8B5044600784F4D800672D54D4E00279D
:1009C000403EB06BC00004D4B06BA9050843B063CF
:1009D000012749480168C90511D4016882151143EE
:1009E0000160FFF791FF009005E0FFF78DFF009990
:1009F000401A642837D840480068C005F5D53268E9
:100A00000321090560680A400140914208D0810332
:100A1000890F032904D13168890301D50120F8BD6C
:100A20002A69032109040A4022D0084090421FD0BD
:100A3000207880061CD528692A6988430121C904C9
:100A40000A432A612A698A432A612861C0050FD5B1
:100A5000FFF75AFF009008E0FFF756FF0099411A90
:100A60002648814201D90320F8BD28698005F3D5C5
:100A700061688803800F032805D13268000582432E
:100A800001400A4332602869032261681204114060
:100A900008432861002F04D0B16B01200007814377
:100AA000B1632078800705D5E8680C218843A168E8
:100AB0000843E8602078400706D5E86803218902EA
:100AC0008843E1680843E8602078000706D5E868B5
:100AD00003210903884321690843E8602078000660
:100AE00006D5E86803218904884361690843E86002
:100AF0000020F8BD40100240007000408813000044
:100B0000F8B50E4605007DD053480068C007C00FF9
:100B1000B0420AD250480168490849003143016097
:100B20000068C007C00FB04271D128784B4C8007D5
:100B300005D5E068F0218843A9680843E06028787B
:100B4000C00752D06868022817D0032818D021683F
:100B5000012818D08905002959DAE1688908890037
:100B60000143E160FFF7D0FE69680746022912D011
:100B700003291CD0012926D033E021688903EAE744
:100B800021688901E7E74907E5E7FFF7BDFEC11BDB
:100B90003348814223D8E0680007800F0228F4D14F
:100BA00023E0FFF7B1FEC11B2D48814217D8E06852
:100BB0000007800F0328F4D117E0FFF7A5FEC11B43
:100BC000274881420BD8E0680007800F0128F4D144
:100BD0000BE0FFF799FEC11B2148814201D9032098
:100BE000F8BDE0680007800FF3D11B480168C90712
:100BF000C90FB1420DD9016849084900314301606C
:100C0000006800E003E0C007C00FB04201D001203F
:100C1000F8BD2878400706D5E06807210902884317
:100C2000E9680843E0602878000707D5E0680721F5
:100C3000C90288432969C9000843E06000F036F81A
:100C4000E168084A0906090F515CC8400649086076
:100C50000020FFF77BFEF8BD00200240001002409C
:100C600088130000A81F000804000020044805495C
:100C70000068C968044A4905490F515CC84070477B
:100C80000400002000100240C11F0008044805496C
:100C90000068C968044A8904490F515CC84070471C
:100CA0000400002000100240C11F000810B5184ABF
:100CB000D1680C20084004280BD0082810D00C283C
:100CC00010D050680004410F0120C003491C884027
:100CD00010BD1068C00601D50E4810BD0E4810BDED
:100CE0000E4810BD88020E4B000F185C0902D36835
:100CF000890F491CDB0301D5084A05E01268D206BA
:100D000001D5044A00E0044A5043FFF70FFA10BD32
:100D10000010024000093D000024F40000127A0097
:100D2000B81F0008FEB505007ED0FE4CE7680C2019
:100D3000E66807400120000406402878C00747D035
:100D4000082F05D00C2F0AD101200004864206D1BD
:100D5000206880033CD568680028E5D038E0012091
:100D600069680004814203D121680143216011E0D8
:100D7000052301221B0492049942216802D11143E8
:100D80002160F1E7814321602168014000912068E2
:100D900090432060686800280DD0FFF7B5FD0090F3
:100DA00005E0FFF7B1FD0099401A64287ED820685D
:100DB0008003F6D50CE0FFF7A7FD009005E0FFF7F4
:100DC000A3FD0099401A6428F0D820688003F6D467
:100DD000287880075CD5E868810604D52268202140
:100DE0000A43226088430923042F0DD00C2F01D120
:100DF000002E09D000283BD021689943014321608F
:100E0000FFF782FD064627E02168490701D5002843
:100E10008AD061681F22120291432A69120211438B
:100E200061602168994300E08EE101432160FFF792
:100E30003DFFE16809060A0FBB49895CC840BB4910
:100E400008600020FFF782FD002873D120E0FFF743
:100E50005BFD801B0228A9D820684007F7D5606891
:100E60001F210902884329690902084360600FE0D5
:100E70002068400840002060FFF746FD064604E079
:100E8000FFF742FD801B022890D820684007F7D466
:100E90002878C00660D5002F0DD0A86900284AD058
:100EA0002068FF2101310843206000E0C4E0FFF723
:100EB0002BFD06462CE02068800502D5A869002895
:100EC000A6D06068072149038843296A0843606007
:100ED0006068297F0002000A090608436060286AEA
:100EE000410B0120C003491C8840E16809060A0F34
:100EF0008D49895CC8408D4908600020FFF726FDB8
:100F0000002817D128E0FFF7FFFC801B0228A2D899
:100F100020688005F7D56068072149038843296A5E
:100F2000084360606068297F0002000A09060843E0
:100F3000606011E0E1E02168FF2001308143216021
:100F4000FFF7E2FC064604E0FFF7DEFC801B022808
:100F500072D820688005F7D42878754E000724D50C
:100F600068690028306910D0012108433061FFF71B
:100F7000CBFC009005E0FFF7C7FC0099401A02285F
:100F80005AD830698007F6D50FE04008400030613C
:100F9000FFF7BAFC009005E0FFF7B6FC0099401A95
:100FA000022849D830698007F6D42878400765D5EB
:100FB00000200290A06BC00006D4A06B012109079D
:100FC0000843A063012002905A480168C90511D462
:100FD0000168821511430160FFF796FC009005E05F
:100FE000FFF792FC0099401A642825D85148006800
:100FF000C005F5D5FF20AA680130824203D13169CE
:101000000143316111E001218902002A07D0052343
:101010001B029A4203D132690A433261EFE7326917
:1010200082433261306988433061A86800280FD05C
:10103000FFF76AFC009007E05EE0FFF765FC0099AF
:10104000411A3D48814257D830698005F5D50DE0F9
:10105000FFF75AFC009006E0FFF756FC0099411A92
:101060003548814248D830698005F5D40298002877
:1010700004D0A16B012000078143A163686A0028A6
:1010800064D00C2F3ED0012636060228206805D0F9
:10109000B0432060FFF738FC05462FE0B0432060E6
:1010A000FFF732FC074604E0FFF72EFCC01B0228C6
:1010B00022D820688001F7D4E96AA86AE268084368
:1010C000296BFD231B049A4311430843E060206809
:1010D00030432060FFF718FC054604E0FFF714FCDE
:1010E000401B022808D820688001F7D52EE0FFF7C2
:1010F0000BFC401B022801D90320FEBD20688001A3
:10110000F5D423E00128F8D0E06801210904AA6A97
:101110000140914218D10F218904EA6A01409142AD
:1011200012D10BE000100240A81F000804000020AC
:101130004010024000700040881300000321890520
:101140000840296B884201D00120FEBD0020FEBD71
:10115000094910B5401E884201D9012010BD074C35
:1011600060610321081F00F081FA0020A0610720C0
:101170002061002010BD0000FFFFFF0000E000E044
:10118000F0B502462032137E012B15D001271776C9
:101190000223537605686C68AB687026B4430E680A
:1011A000496826438024A34319436E600068816028
:1011B000577600201076F0BD0220F0BD10B586B045
:1011C000044614216846FEF7FEFF012120688907C6
:1011D000884214D10B48C16A01221143C162C06A1E
:1011E0006946104005909002009002200190002076
:1011F00002900390052004900007FFF7CBFA06B099
:1012000010BD000000100240F8B506460446203626
:10121000307E0D4601280DD00120307602207076F8
:101220000427002A08D0042A16D0082A2AD00C2A1B
:101230004DD137E00220F8BD206800F01AFB20688D
:10124000816908221143816120688169B943816104
:1012500020688169EA6812E0206800F022FB2068BB
:1012600082690121C9020A438261206881690122E1
:1012700092029143816120688169EA6812021143F8
:10128000816124E0206800F025FB2068C269082104
:101290000A43C2612068C169B943C1612068C1695C
:1012A000EA6812E0206800F030FB2068C169012282
:1012B000D2021143C1612068C269012189028A43B7
:1012C000C2612068C169EA6812021143C16101204C
:1012D000707600203076F8BD70B5040005D0254644
:1012E0002035687E002802D006E0012070BD002075
:1012F0002876204600F00AF802206876211D206832
:1013000000F086FA01206876002070BD00B50D4817
:1013100087B0826B01210A438263C26A0A43C262B8
:10132000C06A0291084005900220009001900321BC
:1013300004900391052069460007FFF72BFA07B0D8
:1013400000BD00000010024010B5044600680122F4
:1013500000F082FA206881684907490F062903D006
:101360000168012211430160002010BD10B5040086
:1013700003D0606F002802D007E0012010BD0021DB
:1013800070200155204600F027F82420606720686F
:101390000168490849000160204600F06BFB012804
:1013A000ECD0606A002802D0204600F0CDFA206818
:1013B00041680922D20291434160206881682A2253
:1013C0009143816020680168012211430160204639
:1013D00000F020FB10BD000010B586B004461421BB
:1013E0006846FEF7F0FE1049206888421AD10F487F
:1013F000816B0122520411438163C26A01210A43B5
:10140000C262C06A02910840059048020090122012
:1014100001900320039004200490052069460007F2
:10142000FFF7B8F906B010BD0044004000100240BC
:10143000FFB50446406F83B017460D4620285CD1A7
:10144000002D0AD0002F08D0A168C001814207D129
:101450002069002804D1E80702D0012007B0F0BDC0
:10146000204660300290007C012846D0029801217D
:1014700001740020E06721206067FFF745FA2646E7
:1014800040360190378277820120A16800038142B3
:1014900002D12069002802D02F46002511E0002744
:1014A0000FE000228021204600F0E6FB002815D145
:1014B000002F15D02168387888627F1C708A401E02
:1014C0007082708A019B002806980090E9D1002262
:1014D0004021204600F0D0FB002808D00320BDE7C3
:1014E00028882168C005C00D8862AD1CE6E7202071
:1014F0006067029900200874B0E70220AEE7FEE7BB
:1015000000B587B014216846FEF75DFE0D48C26A3B
:1015100001210A43C262C06A0091084005900A484E
:10152000019002200290052069460007FFF732F97A
:10153000002202210520FFF737FA0520FFF72AFADB
:1015400007B000BD0010024000001110024610B5A7
:1015500005200007130000F0D1FB05040F161D2421
:101560000E0001239B03002901D0012200E000228C
:101570001946FFF7C2F910BD002901D0012200E091
:1015800000222021F5E7002901D0012200E00022FD
:101590004021EEE7002901D0012200E00022802155
:1015A000E7E70448002901D0012200E000220221DF
:1015B000DFE7000000040050F0B587B01421684652
:1015C000FEF701FE1748C16A01252943C162C16ABD
:1015D00029400591C16A02263143C162C06A124C9A
:1015E000304005273F070590002221463846FFF787
:1015F00084F9002202210D48FFF77FF900940024AE
:1016000001950294694638460394FFF7C3F80294A3
:1016100069460648009601950394FFF7BBF807B0AA
:10162000F0BD000000100240E04000000004005047
:1016300010B50C480A4901604B21C90141600021E5
:101640008160C16001618161C1610C2201624261FE
:101650004162FFF78BFE002801D0FEF77CFE10BD33
:10166000004400400C000020704700008307FF2268
:10167000DB0E9A408907090E994000280BDA000713
:10168000000F0838830808489B001818C369934363
:101690000B43C3617047830804489B001B181868FC
:1016A000904308431860704700ED00E000E400E05C
:1016B0007047704710B5FFF72DF910BD10B598B001
:1016C00034216846FEF77FFD14210DA8FEF77BFD4F
:1016D000182112A8FEF777FD174801680322D202ED
:1016E0009143C214891801600A20009010200490D0
:1016F0000220012109900024400505910C900391DE
:101700000A940B946846FFF70DFB0F200D90032001
:101710000E900F941094012111940DA8FFF7F0F989
:1017200022201290012040041390149412A8FFF775
:101730003FF918B010BD000000700040104801686B
:10174000821511430160C1680E4A1140C1600168F1
:101750000D4A1140016081684908490081600168B3
:101760000122920491430160C168FD221204914359
:10177000C160002101610549C00388607047000015
:10178000001002400C40FF88F6FFF6FE00ED00E07E
:1017900010B586B00024059401211B4804940094E0
:1017A00001940294890703940160172184604160C9
:1017B000046116494461C160FFF78EFD002801D025
:1017C000FEF7C9FD049404A90F480594FFF7D8FC5F
:1017D000002801D0FEF7BFFD602000900194029424
:1017E0000422694603940848FFF70EFD002801D043
:1017F000FEF7B1FD04210448FFF7A6FD0248FFF7FC
:10180000DDFC06B010BD0000E8000020E70300008A
:1018100030B5026801239B070E4C984201D0A042CC
:1018200003D17025AA434D682A43984201D0A042B3
:1018300004D103231B029A43CB681A4380239A43A3
:101840000B691A4302608A68C262096881620121D9
:10185000416130BD0008014010B5CB06DB0E01210F
:10186000046A99408C430462016A9A401143016200
:1018700010BD30B5026A520852000262026A456821
:1018800083697024A3439C080B68A40023430224AB
:10189000A2438C68456014438361496841630462D4
:1018A00030BD30B5026A10239A430262036A45686C
:1018B000826973242402A2430C6824021443202268
:1018C00093438A68456012011A43846149688163C1
:1018D000026230BD30B5026AFF2301339A430262CF
:1018E000026A4568C3697024A3439C080B68A4007E
:1018F000234301246402A2438C68456024021443FC
:10190000C3614968C163046230BD30B5026A012316
:101910001B039A430262036A4568C2697324240266
:10192000A2430C68240214430122520393438A68A1
:10193000456012031A43C46149680164026230BD04
:10194000012189078863704710B5818CC90707D0CA
:1019500001684A6801235B049A43836A1A434A6018
:10196000818C890707D501684A6801231B049A43C3
:10197000C36A1A434A60818C490707D501684A68DF
:1019800001239B049A43036B1A434A60818C090725
:1019900007D501684A680123DB039A43436B1A4366
:1019A0004A60818CC90607D50268916801231B0330
:1019B0009943836B19439160818C890607D501682F
:1019C0008A6801235B039A43C36B1A438A60818C44
:1019D000490612D503685A6801210905046C8A4337
:1019E00022435A60026C8A4207D10268516803237D
:1019F0005B059943436C19435160818C090607D5F7
:101A000001684A680123DB04806C9A4302434A6000
:101A100010BD0000F8B500260446C667FEF774FF47
:101A2000054620680068124F000709D501212B46A2
:101A3000002249052046009700F01EF900280DD12C
:101A40002068006840070BD501212B46002289053C
:101A50002046009700F010F9002801D00320F8BDBF
:101A600020206067A067603426740020F8BD000065
:101A7000FFFFFF01F8B504462669A268E769324313
:101A80006669102000253E432368324370491E6872
:101A9000704F3E4016431E6022685368032636038B
:101AA000B343E668334353602368A2698B4201D095
:101AB000266A32439E680B273F02BE4316439E6050
:101AC000654E2368654AB3420AD1D2680C2632407B
:101AD00026D0042A28D0082A24D00C2A10D10EE0BF
:101AE0008B420DD1D66803229202164018D00122F3
:101AF0009202B61A18D0B61A14D0964200D1082015
:101B0000564A0126403A564FF6038B4236D10028FA
:101B10000CD002280DD0042812D008281FD11CE0B8
:101B20000020EDE70220EBE70420E9E7FFF79EF84D
:101B300008E01068C00601D5384605E0494803E0D2
:101B4000FFF7B4F8002873D0626851005118814241
:101B500005D81103814202D303E03046F4E70125A2
:101B600066E0010E06025008002330185941FEF7C6
:101B7000F3FA03210902411A3B4A55E0E169B142F7
:101B800032D1030000F0BAF809070A0D062506064F
:101B9000062B0600E3E7FFF769F81CE0FFF776F88D
:101BA00019E010686168C00602D548082F4A01E0B4
:101BB0002F4A48088018FEF7B9FA80B201462D4A2C
:101BC00010399142CBD8511C01400007400F084307
:101BD0002CE0FFF76BF8616840004A08EAE76168AB
:101BE000012248081204E5E7030000F087F809071E
:101BF0000A0D06260606062C0600B0E7FFF736F8A3
:101C00001DE0FFF743F81AE010686168C00602D5CE
:101C10004808C01902E013484A081018FEF786FA6F
:101C200080B20146134A1039914298D82168C860A1
:101C30000020206660662846F8BDFFF737F8616827
:101C40004A088018EAE7616848088019E6E700005A
:101C500000480040F369FFEF00440040401002409C
:101C600000093D000024F400FFFC0F0000127A0080
:101C70000048E801EFFF0000FFB581B017460E46AF
:101C800004460A9D09E0681C07D0FEF73DFE049952
:101C9000401AA8420CD8002D0AD02068C1693046ED
:101CA000884318D00020B842EDD0002005B0F0BD28
:101CB00020680168FF22A132914301602068816899
:101CC00049084900816020206067A06700206034D7
:101CD00020740320EAE70120E5E700000FB410B507
:101CE00003A9044B044A029800F024F810BC08BC75
:101CF00004B01847851E00080800002030B4744660
:101D0000641E2578641CAB4200D21D46635D5B00F7
:101D1000E31830BC184702E008C8121F08C1002AA7
:101D2000FAD170477047002001E001C1121F002A5C
:101D3000FBD17047FFB58DB00446002506E025288D
:101D40000AD0109A0F999047641C6D1C20780028C7
:101D5000F5D1284611B0F0BD00270121484A00976F
:101D600000E00743641C23780846203B984010425B
:101D7000F7D120782E2817D1042007436078641CFF
:101D80002A280CD10E98641C02C800910E900BE01A
:101D900000990A22514330394018641C0090207881
:101DA000014630390929F3D920780028D1D0642898
:101DB00008D0692806D075281ED0109A0F99904730
:101DC0006D1C5BE00A200E99019001C90E9100285C
:101DD00002DA40422D2102E0390504D52B216A4662
:101DE0001172012103E0F90704D02021F7E70BAEBF
:101DF0000B910DE00021FAE70A200E99019001C92C
:101E00000E91F7E70199FEF791F93031761E3170A6
:101E10000028F7D103A8801B20300190780701D556
:101E2000009801E0012000900199884201DD401AEC
:101E300000E000200027009006E002A8109AC05D94
:101E40000F9990476D1C7F1C0B988742F5DB04E0CF
:101E5000109A30200F9990476D1C0099481E0090F1
:101E60000029F5DC05E03078109A761C0F99904730
:101E70006D1C0199481E01900029F4DC641C65E783
:101E80000928010038B50446684604707D231B010B
:101E9000012269460248FFF7CBFA204638BD000010
:101EA0000C0000201CB50B480090400201906946D0
:101EB0000948FEF751FA0848FEF7F8FB14210648D6
:101EC000FEF794FB0A20FEF71FFC0348FEF77EFA9C
:101ED00080B21CBD0800000C8C0000201CB50B4813
:101EE00000900014019069460948FEF735FA084849
:101EF000FEF7DCFB14210648FEF778FB0A20FEF70C
:101F000003FC0348FEF762FA80B21CBD100000100B
:101F10008C000020FEF706FDFFF7D0FBFFF74CFB1F
:101F2000FEF7CEF9FFF784FB4B20C8218001FFF7B5
:101F30002FFCFFF7E5FAFF26F53600243046FFF7C1
:101F4000FFFCFFF7AFFF0546FFF7C8FF01462A4633
:101F500010A0FFF7C3FE3046FEF7D6FB641CE00F6F
:101F6000001940084000251AE9B20020FFF7EEFAF8
:101F7000E9B20120FFF7EAFAE9B20220FFF7E6FA38
:101F8000E9B20320FFF7E2FAE9B20420FFF7DEFA34
:101F9000D7E70000426174746572792025642020BF
:101FA00025640D0A00000000000000000000000091
:101FB0000102030406070809030406080C10182090
:101FC000300000000001020304000000EC1F0008C4
:101FD000000000200C000000161D0008F81F00087B
:101FE0000C0000201C050000261D00080000000059
:081FF0000000200000000000C9
:04000005080000C12E
:00000001FF
